{
  "contractName": "LifChannels",
  "abi": [
    {
      "constant": false,
      "inputs": [
        {
          "name": "receiver",
          "type": "address"
        },
        {
          "name": "nonce",
          "type": "uint8"
        }
      ],
      "name": "closeChannel",
      "outputs": [],
      "payable": false,
      "stateMutability": "nonpayable",
      "type": "function"
    },
    {
      "constant": false,
      "inputs": [
        {
          "name": "receiver",
          "type": "address"
        },
        {
          "name": "nonce",
          "type": "uint8"
        },
        {
          "name": "balance",
          "type": "uint256"
        }
      ],
      "name": "uncooperativeClose",
      "outputs": [],
      "payable": false,
      "stateMutability": "nonpayable",
      "type": "function"
    },
    {
      "constant": true,
      "inputs": [
        {
          "name": "",
          "type": "bytes32"
        }
      ],
      "name": "closingRequests",
      "outputs": [
        {
          "name": "closingBalance",
          "type": "uint256"
        },
        {
          "name": "closeTime",
          "type": "uint256"
        }
      ],
      "payable": false,
      "stateMutability": "view",
      "type": "function"
    },
    {
      "constant": false,
      "inputs": [
        {
          "name": "receiver",
          "type": "address"
        },
        {
          "name": "nonce",
          "type": "uint8"
        },
        {
          "name": "balance",
          "type": "uint256"
        },
        {
          "name": "balanceMsgSig",
          "type": "bytes"
        },
        {
          "name": "closingSig",
          "type": "bytes"
        }
      ],
      "name": "cooperativeClose",
      "outputs": [],
      "payable": false,
      "stateMutability": "nonpayable",
      "type": "function"
    },
    {
      "constant": true,
      "inputs": [
        {
          "name": "sender",
          "type": "address"
        },
        {
          "name": "receiver",
          "type": "address"
        },
        {
          "name": "nonce",
          "type": "uint8"
        }
      ],
      "name": "getChannelInfo",
      "outputs": [
        {
          "name": "",
          "type": "bytes32"
        },
        {
          "name": "",
          "type": "uint256"
        },
        {
          "name": "",
          "type": "uint256"
        },
        {
          "name": "",
          "type": "uint256"
        }
      ],
      "payable": false,
      "stateMutability": "view",
      "type": "function"
    },
    {
      "constant": true,
      "inputs": [
        {
          "name": "",
          "type": "bytes32"
        }
      ],
      "name": "channels",
      "outputs": [
        {
          "name": "deposit",
          "type": "uint256"
        },
        {
          "name": "nonce",
          "type": "uint8"
        }
      ],
      "payable": false,
      "stateMutability": "view",
      "type": "function"
    },
    {
      "constant": true,
      "inputs": [],
      "name": "challengeTime",
      "outputs": [
        {
          "name": "",
          "type": "uint256"
        }
      ],
      "payable": false,
      "stateMutability": "view",
      "type": "function"
    },
    {
      "constant": true,
      "inputs": [
        {
          "name": "sender",
          "type": "address"
        },
        {
          "name": "receiver",
          "type": "address"
        },
        {
          "name": "nonce",
          "type": "uint8"
        }
      ],
      "name": "getChannelId",
      "outputs": [
        {
          "name": "data",
          "type": "bytes32"
        }
      ],
      "payable": false,
      "stateMutability": "pure",
      "type": "function"
    },
    {
      "constant": true,
      "inputs": [
        {
          "name": "receiver",
          "type": "address"
        },
        {
          "name": "nonce",
          "type": "uint8"
        },
        {
          "name": "balance",
          "type": "uint256"
        },
        {
          "name": "msgSigned",
          "type": "bytes"
        }
      ],
      "name": "getSignerOfBalanceHash",
      "outputs": [
        {
          "name": "",
          "type": "address"
        }
      ],
      "payable": false,
      "stateMutability": "view",
      "type": "function"
    },
    {
      "constant": true,
      "inputs": [
        {
          "name": "message",
          "type": "bytes"
        }
      ],
      "name": "generateKeccak256",
      "outputs": [
        {
          "name": "",
          "type": "bytes32"
        }
      ],
      "payable": false,
      "stateMutability": "pure",
      "type": "function"
    },
    {
      "constant": true,
      "inputs": [
        {
          "name": "receiver",
          "type": "address"
        },
        {
          "name": "nonce",
          "type": "uint8"
        },
        {
          "name": "balance",
          "type": "uint256"
        }
      ],
      "name": "generateBalanceHash",
      "outputs": [
        {
          "name": "",
          "type": "bytes32"
        }
      ],
      "payable": false,
      "stateMutability": "view",
      "type": "function"
    },
    {
      "constant": false,
      "inputs": [
        {
          "name": "receiver",
          "type": "address"
        },
        {
          "name": "deposit",
          "type": "uint256"
        },
        {
          "name": "nonce",
          "type": "uint8"
        }
      ],
      "name": "openChannel",
      "outputs": [],
      "payable": false,
      "stateMutability": "nonpayable",
      "type": "function"
    },
    {
      "constant": true,
      "inputs": [],
      "name": "token",
      "outputs": [
        {
          "name": "",
          "type": "address"
        }
      ],
      "payable": false,
      "stateMutability": "view",
      "type": "function"
    },
    {
      "inputs": [
        {
          "name": "tokenAddress",
          "type": "address"
        },
        {
          "name": "_challengeTime",
          "type": "uint256"
        }
      ],
      "payable": false,
      "stateMutability": "nonpayable",
      "type": "constructor"
    },
    {
      "anonymous": false,
      "inputs": [
        {
          "indexed": true,
          "name": "sender",
          "type": "address"
        },
        {
          "indexed": true,
          "name": "receiver",
          "type": "address"
        },
        {
          "indexed": true,
          "name": "nonce",
          "type": "uint8"
        },
        {
          "indexed": false,
          "name": "deposit",
          "type": "uint256"
        }
      ],
      "name": "ChannelCreated",
      "type": "event"
    },
    {
      "anonymous": false,
      "inputs": [
        {
          "indexed": true,
          "name": "sender",
          "type": "address"
        },
        {
          "indexed": true,
          "name": "receiver",
          "type": "address"
        },
        {
          "indexed": true,
          "name": "nonce",
          "type": "uint8"
        },
        {
          "indexed": false,
          "name": "balance",
          "type": "uint256"
        }
      ],
      "name": "ChannelCloseRequested",
      "type": "event"
    },
    {
      "anonymous": false,
      "inputs": [
        {
          "indexed": true,
          "name": "sender",
          "type": "address"
        },
        {
          "indexed": true,
          "name": "receiver",
          "type": "address"
        },
        {
          "indexed": true,
          "name": "nonce",
          "type": "uint8"
        },
        {
          "indexed": false,
          "name": "balance",
          "type": "uint256"
        }
      ],
      "name": "ChannelClosed",
      "type": "event"
    }
  ],
  "bytecode": "0x6060604052341561000f57600080fd5b604051604080610d9d8339810160405280805191906020018051915050600160a060020a038216151561004157600080fd5b600081101561004f57600080fd5b60008054600160a060020a03909316600160a060020a031990931692909217909155600155610d1a806100836000396000f3006060604052600436106100ab5763ffffffff60e060020a600035041663084992a681146100b05780633cc7508f146100d757806349596462146100ff578063523898f41461012d5780636f204f201461016f5780637a7ebd7b146101c6578063a4727272146101f7578063cc20d0751461021c578063f3e6826414610247578063f459eb61146102ce578063f568006f1461031f578063f5eeaea314610347578063fc0c546a1461036f575b600080fd5b34156100bb57600080fd5b6100d5600160a060020a036004351660ff60243516610382565b005b34156100e257600080fd5b6100d5600160a060020a036004351660ff602435166044356103ef565b341561010a57600080fd5b6101156004356104cc565b60405191825260208201526040908101905180910390f35b341561013857600080fd5b6100d560048035600160a060020a0316906024803560ff1691604435916064358082019290810135916084359081019101356104e5565b341561017a57600080fd5b61019a600160a060020a036004358116906024351660ff6044351661060a565b604051938452602084019290925260408084019190915260608301919091526080909101905180910390f35b34156101d157600080fd5b6101dc600435610673565b60405191825260ff1660208201526040908101905180910390f35b341561020257600080fd5b61020a61068f565b60405190815260200160405180910390f35b341561022757600080fd5b61020a600160a060020a036004358116906024351660ff60443516610695565b341561025257600080fd5b6102b260048035600160a060020a0316906024803560ff16916044359160849060643590810190830135806020601f8201819004810201604051908101604052818152929190602084018383808284375094965061070595505050505050565b604051600160a060020a03909116815260200160405180910390f35b34156102d957600080fd5b61020a60046024813581810190830135806020601f8201819004810201604051908101604052818152929190602084018383808284375094965061080295505050505050565b341561032a57600080fd5b61020a600160a060020a036004351660ff60243516604435610867565b341561035257600080fd5b6100d5600160a060020a036004351660243560ff604435166108e0565b341561037a57600080fd5b6102b2610a9b565b600061038f338484610695565b60008181526003602052604081206001015491925090116103af57600080fd5b60008181526003602052604090206001015442116103cc57600080fd5b6000818152600360205260409020546103ea90339085908590610aaa565b505050565b60006103fc338585610695565b6000818152600360205260409020600101549091501561041b57600080fd5b60008181526002602052604090205482111561043657600080fd5b60015461044a90429063ffffffff610caf16565b600082815260036020526040902060010181905542901161046a57600080fd5b6000818152600360205260409081902083905560ff841690600160a060020a038087169133909116907f2cdb887754e97f3af78e6e803377d70168a73f6018c1e2b00d1d06f4fca40a7c9086905190815260200160405180910390a450505050565b6003602052600090815260409020805460019091015482565b600080858560405180838380828437820191505092505050604051908190039020915073__ECRecovery____________________________6319045a2583868660006040516020015260405160e060020a63ffffffff861602815260048101848152604060248301908152604483018490529091606401848480828437820191505094505050505060206040518083038186803b151561058457600080fd5b6102c65a03f4151561059557600080fd5b5050506040518051600160a060020a038b811691161490506105b657600080fd5b6105f189898989898080601f016020809104026020016040519081016040528181529291906020840183838082843750610705945050505050565b90506105ff818a8a8a610aaa565b505050505050505050565b600080600080600061061d888888610695565b60008181526002602052604081206001015491925060ff9091161161064157600080fd5b600081815260026020908152604080832054600390925290912060018101549054929a91995097509095509350505050565b6002602052600090815260409020805460019091015460ff1682565b60015481565b6000838383604051600160a060020a039384166c01000000000000000000000000908102825292909316909102601483015260ff167f0100000000000000000000000000000000000000000000000000000000000000026028820152602901604051809103902090509392505050565b6000806000610715878787610867565b915073__ECRecovery____________________________6319045a25838660006040516020015260405160e060020a63ffffffff851602815260048101838152604060248301908152909160440183818151815260200191508051906020019080838360005b8381101561079357808201518382015260200161077b565b50505050905090810190601f1680156107c05780820380516001836020036101000a031916815260200191505b50935050505060206040518083038186803b15156107dd57600080fd5b6102c65a03f415156107ee57600080fd5b505050604051805198975050505050505050565b6000816040518082805190602001908083835b602083106108345780518252601f199092019160209182019101610815565b6001836020036101000a038019825116818451161790925250505091909101925060409150505180910390209050919050565b600083838330604051600160a060020a039485166c01000000000000000000000000908102825260ff949094167f01000000000000000000000000000000000000000000000000000000000000000260148201526015810192909252909216026035820152604901604051809103902090509392505050565b600060ff82168190116108f257600080fd5b600160a060020a038416151561090757600080fd5b6000831161091457600080fd5b61091f338584610695565b6000818152600260205260409020549091501561093b57600080fd5b60008181526002602052604090206001015460ff161561095a57600080fd5b6000818152600360205260409020600101541561097657600080fd5b60408051908101604090815284825260ff84166020808401919091526000848152600290915220815181556020820151600191909101805460ff191660ff92831617905583169050600160a060020a038581169033167fd8b44cc7ebbce8a602b274e133453edd5dc29b2b467b1c3562550ca4740a89b88660405190815260200160405180910390a460008054600160a060020a0316906323b872dd903390309087906040516020015260405160e060020a63ffffffff8616028152600160a060020a0393841660048201529190921660248201526044810191909152606401602060405180830381600087803b1515610a6f57600080fd5b6102c65a03f11515610a8057600080fd5b505050604051805190501515610a9557600080fd5b50505050565b600054600160a060020a031681565b6000610ab4610cd7565b610abf868686610695565b6000818152600260205260409081902091935080519081016040528154815260019091015460ff16602082019081529091506000905160ff1611610b0257600080fd5b8051831115610b1057600080fd5b60008281526002602090815260408083208381556001908101805460ff1916905560039092528083208381559091018290558154600160a060020a03169163a9059cbb9188918791516020015260405160e060020a63ffffffff8516028152600160a060020a0390921660048301526024820152604401602060405180830381600087803b1515610ba057600080fd5b6102c65a03f11515610bb157600080fd5b505050604051805190501515610bc657600080fd5b600054600160a060020a031663a9059cbb87610bea8685519063ffffffff610cc516565b60006040516020015260405160e060020a63ffffffff8516028152600160a060020a0390921660048301526024820152604401602060405180830381600087803b1515610c3657600080fd5b6102c65a03f11515610c4757600080fd5b505050604051805190501515610c5c57600080fd5b8360ff1685600160a060020a031687600160a060020a03167ffff17c72f0e0df0ca1d9ee446bf86ab050f78636a2aa06d45f9dbea6146e03fc8660405190815260200160405180910390a4505050505050565b600082820183811015610cbe57fe5b9392505050565b600082821115610cd157fe5b50900390565b6040805190810160405260008082526020820152905600a165627a7a72305820f469876510c11c660c15fa881e4a4b213aca3f12aaee0da5137aa9b2180a6c4d0029",
  "source": "pragma solidity ^0.4.18;\n\nimport \"zeppelin-solidity/contracts/token/ERC20/ERC20.sol\";\nimport \"zeppelin-solidity/contracts/math/SafeMath.sol\";\nimport \"zeppelin-solidity/contracts/ECRecovery.sol\";\n\n/**\n   @title LifChannels, State channels for ERC20 Lif Token\n\n   Contract that provides holders of a ERC20 compatible token the creation of\n   channels between two users, once a channel is open the users can exchange\n   signatures offchain to agree on the final value of the transfer.\n   Uses OpenZeppelin ERC20 and SafeMath lib.\n */\ncontract LifChannels {\n  using SafeMath for uint256;\n\n  // Add recover method for bytes32 using ECRecovery lib from OpenZeppelin\n  using ECRecovery for bytes32;\n\n  // The ERC20 token to be used\n  ERC20 public token;\n\n  // The amount of time that a receiver has to challenge the sender\n  uint256 public challengeTime;\n\n  // The channels opened\n  mapping (bytes32 => Channel) public channels;\n  struct Channel {\n    uint256 deposit;\n    uint8 nonce;\n  }\n\n  // The requests from sender to close a channel\n  mapping (bytes32 => ClosingRequest) public closingRequests;\n  struct ClosingRequest {\n    uint256 closingBalance;\n    uint256 closeTime;\n  }\n\n  /*\n   *  Events\n   */\n\n  event ChannelCreated(\n    address indexed sender,\n    address indexed receiver,\n    uint8 indexed nonce,\n    uint256 deposit\n  );\n  event ChannelCloseRequested(\n    address indexed sender,\n    address indexed receiver,\n    uint8 indexed nonce,\n    uint256 balance\n  );\n  event ChannelClosed(\n    address indexed sender,\n    address indexed receiver,\n    uint8 indexed nonce,\n    uint256 balance\n  );\n\n  /**\n   * @dev Constructor\n   * @param tokenAddress address, the address of the ERC20 token that will be used\n   * @param _challengeTime uint256, the time that a channel has before ends\n      with and uncoopertive close\n   */\n  function LifChannels(\n    address tokenAddress,\n    uint256 _challengeTime\n  ) public {\n    require(tokenAddress != address(0));\n    require(_challengeTime >= 0);\n\n    token = ERC20(tokenAddress);\n    challengeTime = _challengeTime;\n  }\n\n  /**\n   * @dev Creates a channel between the msg.sender and the receiver\n   * @param receiver address, the receiver of the channel\n   * @param deposit uint256, the balance taht I want to load in the channel\n   * @param nonce uint8, the nonce number of the channel\n   */\n  function openChannel(\n    address receiver,\n    uint256 deposit,\n    uint8 nonce\n  ) external {\n\n    require(nonce > 0);\n    require(receiver != address(0));\n    require(deposit > 0);\n\n    // Create unique identifier from sender, receiver and current block timestamp\n    bytes32 channelId = getChannelId(msg.sender, receiver, nonce);\n\n    // Check taht teh channel not exist\n    require(channels[channelId].deposit == 0);\n    require(channels[channelId].nonce == 0);\n    require(closingRequests[channelId].closeTime == 0);\n\n    // Store channel information\n    channels[channelId] = Channel({deposit: deposit, nonce: nonce});\n    ChannelCreated(msg.sender, receiver, nonce, deposit);\n\n    // transferFrom deposit from sender to contract\n    // ! needs prior approval from user\n    require(token.transferFrom(msg.sender, address(this), deposit));\n  }\n\n  /**\n   * @dev Starts a close channel request form the sender\n   * @param receiver address, the receiver of the channel\n   * @param nonce uint8, the nonce number of the channel\n   * @param balance uint256, the final balance of teh receiver\n   */\n  function uncooperativeClose(\n    address receiver,\n    uint8 nonce,\n    uint256 balance\n  ) external {\n    bytes32 channelId = getChannelId(msg.sender, receiver, nonce);\n\n    // Check that the closing request dont exist\n    require(closingRequests[channelId].closeTime == 0);\n\n    // Check that the balance is less that the deposited\n    require(balance <= channels[channelId].deposit);\n\n    // Mark channel as closed and create closing request\n    closingRequests[channelId].closeTime = block.timestamp.add(challengeTime);\n    require(closingRequests[channelId].closeTime > block.timestamp);\n    closingRequests[channelId].closingBalance = balance;\n    ChannelCloseRequested(msg.sender, receiver, nonce, balance);\n  }\n\n  /**\n   * @dev Close a channel with the agreement of the sender and receiver\n   * @param receiver address, the receiver of the channel\n   * @param nonce uint8, the nonce number of the channel\n   * @param balanceMsgSig bytes, the signature of the sender\n   * @param closingSig bytes, the signature of the receiver\n   */\n  function cooperativeClose(\n    address receiver,\n    uint8 nonce,\n    uint256 balance,\n    bytes balanceMsgSig,\n    bytes closingSig\n  ) external {\n    // Derive receiver address from signature\n    bytes32 msgHash = keccak256(balanceMsgSig);\n    require(receiver == msgHash.recover(closingSig));\n\n    // Derive sender address from signed balance proof\n    address sender = getSignerOfBalanceHash(receiver, nonce, balance, balanceMsgSig);\n\n    close(sender, receiver, nonce, balance);\n  }\n\n  /**\n   * @dev Close a channel with an existing closing request\n   * @param receiver address, the receiver of the channel\n   * @param nonce uint8, the nonce number of the channel\n   */\n  function closeChannel(address receiver, uint8 nonce) external {\n    bytes32 channelId = getChannelId(msg.sender, receiver, nonce);\n\n    // Check that the closing request was created\n    require(closingRequests[channelId].closeTime > 0);\n\n    // Make sure the challengeTime has ended\n    require(block.timestamp > closingRequests[channelId].closeTime);\n\n    close(msg.sender, receiver, nonce,\n      closingRequests[channelId].closingBalance\n    );\n  }\n\n  /**\n   * @dev Get the channel info\n   * @param sender address, the sender of the channel\n   * @param receiver address, the receiver of the channel\n   * @param nonce uint8, the nonce number of the channel\n   */\n  function getChannelInfo(\n    address sender,\n    address receiver,\n    uint8 nonce\n  ) external view returns (bytes32, uint256, uint256, uint256) {\n    bytes32 channelId = getChannelId(sender, receiver, nonce);\n    require(channels[channelId].nonce > 0);\n\n    return (\n      channelId,\n      channels[channelId].deposit,\n      closingRequests[channelId].closeTime,\n      closingRequests[channelId].closingBalance\n    );\n  }\n\n  /*\n   *  Public functions\n   */\n\n  /**\n   * @dev Get the signer of a balance hash signed with a generated hash on chain\n   * @param receiver address, the receiver to hash\n   * @param nonce uint8, the nonce number of the channel\n   * @param balance uint256, the balance to hash\n   * @param msgSigned bytes, the balance hash signed\n   */\n  function getSignerOfBalanceHash(\n    address receiver,\n    uint8 nonce,\n    uint256 balance,\n    bytes msgSigned\n  ) public view returns (address) {\n    bytes32 msgHash = generateBalanceHash(receiver, nonce, balance);\n    // Derive address from signature\n    address signer = msgHash.recover(msgSigned);\n    return signer;\n  }\n\n  /**\n   * @dev Generate a hash balance for an address\n   * @param receiver address, the receiver to hash\n   * @param nonce uint8, the nonce number of the channel\n   * @param balance uint256, the balance to hash\n   */\n  function generateBalanceHash(\n    address receiver,\n    uint8 nonce,\n    uint256 balance\n  ) public view returns (bytes32) {\n    return keccak256(receiver, nonce, balance, address(this));\n  }\n\n  /**\n   * @dev Generate a keccak256 hash\n   * @param message bytes, the mesage to hash\n   */\n  function generateKeccak256(bytes message) public pure returns(bytes32) {\n    return keccak256(message);\n  }\n\n  /**\n   * @dev Generate a channel id\n   * @param sender address, the sender in the channel\n   * @param receiver address, the receiver in the channel\n   * @param nonce uint8, the nonce number of the channel\n   */\n  function getChannelId(\n    address sender,\n    address receiver,\n    uint8 nonce\n  ) public pure returns (bytes32 data) {\n    return keccak256(sender, receiver, nonce);\n  }\n\n  /*\n   *  Internal functions\n   */\n\n  /**\n   * @dev Close a channel\n   * @param sender address, the sender in the channel\n   * @param receiver address, the receiver in the channel\n   * @param nonce uint8, the nonce number of the channel\n   * @param receiverBalance uint256, the final balance of the receiver\n   */\n  function close(\n    address sender,\n    address receiver,\n    uint8 nonce,\n    uint256 receiverBalance\n  ) internal {\n    bytes32 channelId = getChannelId(sender, receiver, nonce);\n    Channel memory channel = channels[channelId];\n\n    require(channel.nonce > 0);\n    require(receiverBalance <= channel.deposit);\n\n    // Remove closed channel structures\n    // channel.nonce will become 0\n    // Change state before transfer call\n    delete channels[channelId];\n    delete closingRequests[channelId];\n\n    // Send balance to the receiver, as it is always <= deposit\n    require(token.transfer(receiver, receiverBalance));\n\n    // Send deposit - balance back to sender\n    require(token.transfer(sender, channel.deposit.sub(receiverBalance)));\n\n    ChannelClosed(sender, receiver, nonce, receiverBalance);\n  }\n\n}\n",
  "sourcePath": "/home/blackjak/winding-tree/LifToken/contracts/LifChannels.sol",
  "compiler": {
    "name": "solc",
    "version": "0.4.18+commit.9cf6e910.Emscripten.clang"
  },
  "schemaVersion": "1.0.1",
  "updatedAt": "2018-01-30T01:37:56.654Z"
}