{
  "contractName": "LifMarketValidationMechanism",
  "abi": [
    {
      "constant": true,
      "inputs": [],
      "name": "getBuyPrice",
      "outputs": [
        {
          "name": "price",
          "type": "uint256"
        }
      ],
      "payable": false,
      "stateMutability": "view",
      "type": "function"
    },
    {
      "constant": true,
      "inputs": [],
      "name": "totalPausedSeconds",
      "outputs": [
        {
          "name": "",
          "type": "uint256"
        }
      ],
      "payable": false,
      "stateMutability": "view",
      "type": "function"
    },
    {
      "constant": true,
      "inputs": [],
      "name": "lifToken",
      "outputs": [
        {
          "name": "",
          "type": "address"
        }
      ],
      "payable": false,
      "stateMutability": "view",
      "type": "function"
    },
    {
      "constant": true,
      "inputs": [],
      "name": "getMaxClaimableWeiAmount",
      "outputs": [
        {
          "name": "",
          "type": "uint256"
        }
      ],
      "payable": false,
      "stateMutability": "view",
      "type": "function"
    },
    {
      "constant": true,
      "inputs": [],
      "name": "initialBuyPrice",
      "outputs": [
        {
          "name": "",
          "type": "uint256"
        }
      ],
      "payable": false,
      "stateMutability": "view",
      "type": "function"
    },
    {
      "constant": false,
      "inputs": [],
      "name": "unpause",
      "outputs": [],
      "payable": false,
      "stateMutability": "nonpayable",
      "type": "function"
    },
    {
      "constant": true,
      "inputs": [],
      "name": "secondsPerPeriod",
      "outputs": [
        {
          "name": "",
          "type": "uint256"
        }
      ],
      "payable": false,
      "stateMutability": "view",
      "type": "function"
    },
    {
      "constant": true,
      "inputs": [],
      "name": "initialWei",
      "outputs": [
        {
          "name": "",
          "type": "uint256"
        }
      ],
      "payable": false,
      "stateMutability": "view",
      "type": "function"
    },
    {
      "constant": true,
      "inputs": [],
      "name": "totalBurnedTokens",
      "outputs": [
        {
          "name": "",
          "type": "uint256"
        }
      ],
      "payable": false,
      "stateMutability": "view",
      "type": "function"
    },
    {
      "constant": true,
      "inputs": [],
      "name": "paused",
      "outputs": [
        {
          "name": "",
          "type": "bool"
        }
      ],
      "payable": false,
      "stateMutability": "view",
      "type": "function"
    },
    {
      "constant": false,
      "inputs": [
        {
          "name": "newToken",
          "type": "address"
        }
      ],
      "name": "changeToken",
      "outputs": [],
      "payable": false,
      "stateMutability": "nonpayable",
      "type": "function"
    },
    {
      "constant": true,
      "inputs": [],
      "name": "getAccumulatedDistributionPercentage",
      "outputs": [
        {
          "name": "percentage",
          "type": "uint256"
        }
      ],
      "payable": false,
      "stateMutability": "view",
      "type": "function"
    },
    {
      "constant": true,
      "inputs": [],
      "name": "isFinished",
      "outputs": [
        {
          "name": "finished",
          "type": "bool"
        }
      ],
      "payable": false,
      "stateMutability": "view",
      "type": "function"
    },
    {
      "constant": false,
      "inputs": [],
      "name": "pause",
      "outputs": [],
      "payable": false,
      "stateMutability": "nonpayable",
      "type": "function"
    },
    {
      "constant": true,
      "inputs": [],
      "name": "owner",
      "outputs": [
        {
          "name": "",
          "type": "address"
        }
      ],
      "payable": false,
      "stateMutability": "view",
      "type": "function"
    },
    {
      "constant": true,
      "inputs": [],
      "name": "pausedTimestamp",
      "outputs": [
        {
          "name": "",
          "type": "uint256"
        }
      ],
      "payable": false,
      "stateMutability": "view",
      "type": "function"
    },
    {
      "constant": true,
      "inputs": [],
      "name": "totalReimbursedWei",
      "outputs": [
        {
          "name": "",
          "type": "uint256"
        }
      ],
      "payable": false,
      "stateMutability": "view",
      "type": "function"
    },
    {
      "constant": true,
      "inputs": [],
      "name": "totalWeiClaimed",
      "outputs": [
        {
          "name": "",
          "type": "uint256"
        }
      ],
      "payable": false,
      "stateMutability": "view",
      "type": "function"
    },
    {
      "constant": true,
      "inputs": [],
      "name": "getCurrentPeriodIndex",
      "outputs": [
        {
          "name": "",
          "type": "uint256"
        }
      ],
      "payable": false,
      "stateMutability": "view",
      "type": "function"
    },
    {
      "constant": false,
      "inputs": [],
      "name": "fund",
      "outputs": [],
      "payable": true,
      "stateMutability": "payable",
      "type": "function"
    },
    {
      "constant": false,
      "inputs": [],
      "name": "calculateDistributionPeriods",
      "outputs": [],
      "payable": false,
      "stateMutability": "nonpayable",
      "type": "function"
    },
    {
      "constant": false,
      "inputs": [
        {
          "name": "weiAmount",
          "type": "uint256"
        }
      ],
      "name": "claimWei",
      "outputs": [],
      "payable": false,
      "stateMutability": "nonpayable",
      "type": "function"
    },
    {
      "constant": true,
      "inputs": [],
      "name": "originalTotalSupply",
      "outputs": [
        {
          "name": "",
          "type": "uint256"
        }
      ],
      "payable": false,
      "stateMutability": "view",
      "type": "function"
    },
    {
      "constant": true,
      "inputs": [],
      "name": "startTimestamp",
      "outputs": [
        {
          "name": "",
          "type": "uint256"
        }
      ],
      "payable": false,
      "stateMutability": "view",
      "type": "function"
    },
    {
      "constant": true,
      "inputs": [
        {
          "name": "",
          "type": "uint256"
        }
      ],
      "name": "periods",
      "outputs": [
        {
          "name": "",
          "type": "uint256"
        }
      ],
      "payable": false,
      "stateMutability": "view",
      "type": "function"
    },
    {
      "constant": false,
      "inputs": [
        {
          "name": "newOwner",
          "type": "address"
        }
      ],
      "name": "transferOwnership",
      "outputs": [],
      "payable": false,
      "stateMutability": "nonpayable",
      "type": "function"
    },
    {
      "constant": true,
      "inputs": [],
      "name": "funded",
      "outputs": [
        {
          "name": "",
          "type": "bool"
        }
      ],
      "payable": false,
      "stateMutability": "view",
      "type": "function"
    },
    {
      "constant": false,
      "inputs": [
        {
          "name": "tokens",
          "type": "uint256"
        }
      ],
      "name": "sendTokens",
      "outputs": [],
      "payable": false,
      "stateMutability": "nonpayable",
      "type": "function"
    },
    {
      "constant": true,
      "inputs": [],
      "name": "totalPeriods",
      "outputs": [
        {
          "name": "",
          "type": "uint8"
        }
      ],
      "payable": false,
      "stateMutability": "view",
      "type": "function"
    },
    {
      "constant": true,
      "inputs": [],
      "name": "foundationAddr",
      "outputs": [
        {
          "name": "",
          "type": "address"
        }
      ],
      "payable": false,
      "stateMutability": "view",
      "type": "function"
    },
    {
      "inputs": [
        {
          "name": "lifAddr",
          "type": "address"
        },
        {
          "name": "_startTimestamp",
          "type": "uint256"
        },
        {
          "name": "_secondsPerPeriod",
          "type": "uint256"
        },
        {
          "name": "_totalPeriods",
          "type": "uint8"
        },
        {
          "name": "_foundationAddr",
          "type": "address"
        }
      ],
      "payable": false,
      "stateMutability": "nonpayable",
      "type": "constructor"
    },
    {
      "anonymous": false,
      "inputs": [],
      "name": "Pause",
      "type": "event"
    },
    {
      "anonymous": false,
      "inputs": [
        {
          "indexed": false,
          "name": "pausedSeconds",
          "type": "uint256"
        }
      ],
      "name": "Unpause",
      "type": "event"
    },
    {
      "anonymous": false,
      "inputs": [
        {
          "indexed": false,
          "name": "claimedWei",
          "type": "uint256"
        }
      ],
      "name": "ClaimedWei",
      "type": "event"
    },
    {
      "anonymous": false,
      "inputs": [
        {
          "indexed": true,
          "name": "sender",
          "type": "address"
        },
        {
          "indexed": false,
          "name": "price",
          "type": "uint256"
        },
        {
          "indexed": false,
          "name": "tokens",
          "type": "uint256"
        },
        {
          "indexed": false,
          "name": "returnedWei",
          "type": "uint256"
        }
      ],
      "name": "SentTokens",
      "type": "event"
    },
    {
      "anonymous": false,
      "inputs": [
        {
          "indexed": true,
          "name": "previousOwner",
          "type": "address"
        },
        {
          "indexed": true,
          "name": "newOwner",
          "type": "address"
        }
      ],
      "name": "OwnershipTransferred",
      "type": "event"
    }
  ],
  "bytecode": "0x60606040526000600781905560088190556009819055600a819055600c805461ffff19169055600d55341561003357600080fd5b60405160a0806111b2833981016040528080519190602001805191906020018051919060200180519190602001805160008054600160a060020a03191633600160a060020a039081169190911790915590925086161515905061009557600080fd5b4284116100a157600080fd5b600083116100ae57600080fd5b8160ff16601814806100c357508160ff166030145b15156100ce57600080fd5b600160a060020a03811615156100e357600080fd5b60018054600160a060020a03968716600160a060020a0319918216179091556004949094556005929092556006805460ff90921660ff19909216919091179055600280549190931691161790556110738061013f6000396000f3006060604052600436106101665763ffffffff60e060020a600035041663018a25e8811461016b57806335a6c1e01461019057806338fab8c5146101a35780633ad6f8ac146101d25780633ca6d5a9146101e55780633f4ba83a146101f8578063407f80011461020d5780635495794b14610220578063555f323a146102335780635c975abb1461024657806366829b161461026d5780636790f3fe1461028c5780637b3529621461029f5780638456cb59146102b25780638da5cb5b146102c5578063911ef508146102d8578063a156ce7b146102eb578063b30475b6146102fe578063b4f5a21a14610311578063b60d428814610324578063c0670d2c1461032c578063ddd7c8791461033f578063df8f4eb714610355578063e6fd48bc14610368578063ea4a11041461037b578063f2fde38b14610391578063f3a504f2146103b0578063f5c6ca08146103c3578063fea708f6146103d9578063feafb79b14610402575b600080fd5b341561017657600080fd5b61017e610415565b60405190815260200160405180910390f35b341561019b57600080fd5b61017e61045e565b34156101ae57600080fd5b6101b6610464565b604051600160a060020a03909116815260200160405180910390f35b34156101dd57600080fd5b61017e610473565b34156101f057600080fd5b61017e6105b1565b341561020357600080fd5b61020b6105b7565b005b341561021857600080fd5b61017e610654565b341561022b57600080fd5b61017e61065a565b341561023e57600080fd5b61017e610660565b341561025157600080fd5b610259610666565b604051901515815260200160405180910390f35b341561027857600080fd5b61020b600160a060020a0360043516610674565b341561029757600080fd5b61017e6106be565b34156102aa57600080fd5b6102596106fa565b34156102bd57600080fd5b61020b610713565b34156102d057600080fd5b6101b6610781565b34156102e357600080fd5b61017e610790565b34156102f657600080fd5b61017e610796565b341561030957600080fd5b61017e61079c565b341561031c57600080fd5b61017e6107a2565b61020b6107d7565b341561033757600080fd5b61020b610895565b341561034a57600080fd5b61020b600435610bd9565b341561036057600080fd5b61017e610c9d565b341561037357600080fd5b61017e610ca3565b341561038657600080fd5b61017e600435610ca9565b341561039c57600080fd5b61020b600160a060020a0360043516610cc8565b34156103bb57600080fd5b610259610d63565b34156103ce57600080fd5b61020b600435610d6c565b34156103e457600080fd5b6103ec610f45565b60405160ff909116815260200160405180910390f35b341561040d57600080fd5b6101b6610f4e565b6000806104206106be565b9050610457620186a061044b61043c828563ffffffff610f5d16565b6008549063ffffffff610f6f16565b9063ffffffff610fa516565b91505b5090565b600d5481565b600154600160a060020a031681565b60008060008060006104836106fa565b1561049a5730600160a060020a03163194506105aa565b6104ca600a546104be620186a061044b600954600854610f6f90919063ffffffff16565b9063ffffffff610f5d16565b600154909450600160a060020a03166318160ddd6000604051602001526040518163ffffffff1660e060020a028152600401602060405180830381600087803b151561051557600080fd5b6102c65a03f1151561052657600080fd5b50505060405180519050925061053a6106be565b915061057e84610572600b5461044b87610566620186a061044b8a600354610f6f90919063ffffffff16565b9063ffffffff610f6f16565b9063ffffffff610fbc16565b90506007548111156105a55760075461059e90829063ffffffff610f5d16565b94506105aa565b600094505b5050505090565b60085481565b6000805433600160a060020a039081169116146105d357600080fd5b600c54610100900460ff1615156105e657fe5b600e546105fa90429063ffffffff610f5d16565b600d54909150610610908263ffffffff610fbc16565b600d55600c805461ff00191690557faaa520fdd7d2c83061d632fa017b0432407e798818af63ea908589fceda39ab78160405190815260200160405180910390a150565b60055481565b60035481565b60095481565b600c54610100900460ff1681565b60005433600160a060020a0390811691161461068f57600080fd5b6001805473ffffffffffffffffffffffffffffffffffffffff1916600160a060020a0392909216919091179055565b6000806106c96107a2565b60065490915060ff1681106106da57fe5b600f8054829081106106e857fe5b90600052602060002090015491505090565b60065460009060ff1661070b6107a2565b101590505b90565b60005433600160a060020a0390811691161461072e57600080fd5b600c54610100900460ff161561074057fe5b600c805461ff00191661010017905542600e557f6985a02210a168e66602d3235cb6db0e70f92b3ba4d376a33c0f3d9434bff62560405160405180910390a1565b600054600160a060020a031681565b600e5481565b600a5481565b60075481565b6004546000904210156107b157fe5b6107d260055461044b600d546104be60045442610f5d90919063ffffffff16565b905090565b60005433600160a060020a039081169116146107f257600080fd5b600c5460ff16156107ff57fe5b600154600160a060020a03166318160ddd6000604051602001526040518163ffffffff1660e060020a028152600401602060405180830381600087803b151561084757600080fd5b6102c65a03f1151561085857600080fd5b5050506040518051600b819055346003819055610883925061044b90620186a063ffffffff610f6f16565b600855600c805460ff19166001179055565b61089d610fcb565b6108a5610ff3565b60065460009060ff16601814806108c1575060065460ff166030145b15156108c957fe5b600f54156108d357fe5b6103006040519081016040528060008152602001601281526020016075815260200161015f81526020016102ff815260200161057f81526020016109058152602001610db781526020016113b78152602001611b2881526020016124298152602001612edb8152602001613b5c81526020016149c98152602001615a408152602001616cde81526020016181bf81526020016198fe815260200161b2b5815260200161cf00815260200161edf9815260200162010fb981526020016201345a815260200162015bf4815250925061060060405190810160405280600081526020016003815260200160128152602001603681526020016075815260200160d6815260200161015f815260200161021681526020016102ff8152602001610420815260200161057e815260200161071e81526020016109048152602001610b358152602001610db6815260200161108a81526020016113b6815260200161173e8152602001611b268152602001611f73815260200161242881526020016129498152602001612eda81526020016134df8152602001613b5b815260200161425281526020016149c881526020016151c18152602001615a4081526020016163488152602001616cde815260200161770481526020016181be8152602001618d1081526020016198fd815260200161a588815260200161b2b5815260200161c086815260200161cf00815260200161de25815260200161edf9815260200161fe7e815260200162010fb88152602001620121ab8152602001620134598152602001620147c5815260200162015bf38152602001620170e68152509150600090505b60065460ff9081169082161015610bd45760065460ff1660181415610b9157600f805460018101610b63838261100e565b91600052602060002090016000858460ff16601881101515610b8157fe5b602002015190915550610bcc9050565b600f805460018101610ba3838261100e565b91600052602060002090016000848460ff16603081101515610bc157fe5b602002015190915550505b600101610b32565b505050565b600c54600090610100900460ff1615610bee57fe5b60025433600160a060020a03908116911614610c0957600080fd5b610c11610473565b905081811015610c1d57fe5b600254600160a060020a031682156108fc0283604051600060405180830381858888f193505050501515610c5057600080fd5b600754610c63908363ffffffff610fbc16565b6007557f7995ed8c8bb70e086ac77eabe37bd8742685022b74d12ac20d7629469b5374e58260405190815260200160405180910390a15050565b600b5481565b60045481565b600f805482908110610cb757fe5b600091825260209091200154905081565b60005433600160a060020a03908116911614610ce357600080fd5b600160a060020a0381161515610cf857600080fd5b600054600160a060020a0380831691167f8be0079c531659141344cd1fd0a4f28419497f9722a3daafe3b4186f6b6457e060405160405180910390a36000805473ffffffffffffffffffffffffffffffffffffffff1916600160a060020a0392909216919091179055565b600c5460ff1681565b600c546000908190610100900460ff1615610d8357fe5b60008311610d9057600080fd5b610d98610415565b9150610db1620186a061044b858563ffffffff610f6f16565b600154909150600160a060020a03166323b872dd33308660006040516020015260405160e060020a63ffffffff8616028152600160a060020a0393841660048201529190921660248201526044810191909152606401602060405180830381600087803b1515610e2057600080fd5b6102c65a03f11515610e3157600080fd5b50505060405180515050600154600160a060020a03166342966c688460405160e060020a63ffffffff84160281526004810191909152602401600060405180830381600087803b1515610e8357600080fd5b6102c65a03f11515610e9457600080fd5b5050600954610eaa91508463ffffffff610fbc16565b600955600160a060020a0333167f1e3ea5698ac6d5bb5cde5c6a3764daa2ef39b16b2062c0ded43333188a5851c083858460405180848152602001838152602001828152602001935050505060405180910390a2600a54610f11908263ffffffff610fbc16565b600a55600160a060020a03331681156108fc0282604051600060405180830381858888f193505050501515610bd457600080fd5b60065460ff1681565b600254600160a060020a031681565b600082821115610f6957fe5b50900390565b600080831515610f825760009150610f9e565b50828202828482811515610f9257fe5b0414610f9a57fe5b8091505b5092915050565b6000808284811515610fb357fe5b04949350505050565b600082820183811015610f9a57fe5b6103006040519081016040526018815b6000815260200190600190039081610fdb5790505090565b61060060405190810160405260008152602f60208201610fdb565b815481835581811511610bd457600083815260209020610bd491810190830161071091905b8082111561045a57600081556001016110335600a165627a7a72305820f1c6904d657bf7a6ab90cc8aeec1faaa348922e21b3416b05374a8af1dff2ca70029",
  "source": "pragma solidity ^0.4.18;\n\nimport \"zeppelin-solidity/contracts/math/SafeMath.sol\";\nimport \"zeppelin-solidity/contracts/ownership/Ownable.sol\";\nimport \"./LifToken.sol\";\n\n/**\n   @title Market Validation Mechanism (MVM)\n */\ncontract LifMarketValidationMechanism is Ownable {\n  using SafeMath for uint256;\n\n  // The Lif token contract\n  LifToken public lifToken;\n\n  // The address of the foundation wallet. It can claim part of the eth funds\n  // following an exponential curve until the end of the MVM lifetime (24 or 48\n  // months). After that it can claim 100% of the remaining eth in the MVM.\n  address public foundationAddr;\n\n  // The amount of wei that the MVM received initially\n  uint256 public initialWei;\n\n  // Start timestamp since which the MVM begins to accept tokens via sendTokens\n  uint256 public startTimestamp;\n\n  // Quantity of seconds in every period, usually equivalent to 30 days\n  uint256 public secondsPerPeriod;\n\n  // Number of periods. It should be 24 or 48 (each period is roughly a month)\n  uint8 public totalPeriods;\n\n  // The total amount of wei that was claimed by the foundation so far\n  uint256 public totalWeiClaimed = 0;\n\n  // The price at which the MVM buys tokens at the beginning of its lifetime\n  uint256 public initialBuyPrice = 0;\n\n  // Amount of tokens that were burned by the MVM\n  uint256 public totalBurnedTokens = 0;\n\n  // Amount of wei that was reimbursed via sendTokens calls\n  uint256 public totalReimbursedWei = 0;\n\n  // Total supply of tokens when the MVM was created\n  uint256 public originalTotalSupply;\n\n  uint256 constant PRICE_FACTOR = 100000;\n\n  // Has the MVM been funded by calling `fund`? It can be funded only once\n  bool public funded = false;\n\n  // true when the market MVM is paused\n  bool public paused = false;\n\n  // total amount of seconds that the MVM was paused\n  uint256 public totalPausedSeconds = 0;\n\n  // the timestamp where the MVM was paused\n  uint256 public pausedTimestamp;\n\n  uint256[] public periods;\n\n  // Events\n  event Pause();\n  event Unpause(uint256 pausedSeconds);\n\n  event ClaimedWei(uint256 claimedWei);\n  event SentTokens(address indexed sender, uint256 price, uint256 tokens, uint256 returnedWei);\n\n  modifier whenNotPaused(){\n    assert(!paused);\n    _;\n  }\n\n  modifier whenPaused(){\n    assert(paused);\n    _;\n  }\n\n  /**\n     @dev Constructor\n\n     @param lifAddr the lif token address\n     @param _startTimestamp see `startTimestamp`\n     @param _secondsPerPeriod see `secondsPerPeriod`\n     @param _totalPeriods see `totalPeriods`\n     @param _foundationAddr see `foundationAddr`\n    */\n  function LifMarketValidationMechanism(\n    address lifAddr, uint256 _startTimestamp, uint256 _secondsPerPeriod,\n    uint8 _totalPeriods, address _foundationAddr\n  ) {\n    require(lifAddr != address(0));\n    require(_startTimestamp > block.timestamp);\n    require(_secondsPerPeriod > 0);\n    require(_totalPeriods == 24 || _totalPeriods == 48);\n    require(_foundationAddr != address(0));\n\n    lifToken = LifToken(lifAddr);\n    startTimestamp = _startTimestamp;\n    secondsPerPeriod = _secondsPerPeriod;\n    totalPeriods = _totalPeriods;\n    foundationAddr = _foundationAddr;\n\n  }\n\n  /**\n     @dev Receives the initial funding from the Crowdsale. Calculates the\n     initial buy price as initialWei / totalSupply\n    */\n  function fund() public payable onlyOwner {\n    assert(!funded);\n\n    originalTotalSupply = lifToken.totalSupply();\n    initialWei = msg.value;\n    initialBuyPrice = initialWei.\n      mul(PRICE_FACTOR).\n      div(originalTotalSupply);\n\n    funded = true;\n  }\n\n  /**\n     @dev Change the LifToken address\n    */\n  function changeToken(address newToken) public onlyOwner {\n    lifToken = LifToken(newToken);\n  }\n\n  /**\n     @dev calculates the exponential distribution curve. It determines how much\n     wei can be distributed back to the foundation every month. It starts with\n     very low amounts ending with higher chunks at the end of the MVM lifetime\n    */\n  function calculateDistributionPeriods() public {\n    assert(totalPeriods == 24 || totalPeriods == 48);\n    assert(periods.length == 0);\n\n    // Table with the max delta % that can be distributed back to the foundation on\n    // each period. It follows an exponential curve (starts with lower % and ends\n    // with higher %) to keep the funds in the MVM longer. deltas24\n    // is used when MVM lifetime is 24 months, deltas48 when it's 48 months.\n    // The sum is less than 100% because the last % is missing: after the last period\n    // the 100% remaining can be claimed by the foundation. Values multipled by 10^5\n\n    uint256[24] memory accumDistribution24 = [\n      uint256(0), 18, 117, 351, 767, 1407,\n      2309, 3511, 5047, 6952, 9257, 11995,\n      15196, 18889, 23104, 27870, 33215, 39166,\n      45749, 52992, 60921, 69561, 78938, 89076\n    ];\n\n    uint256[48] memory accumDistribution48 = [\n      uint256(0), 3, 18, 54, 117, 214, 351, 534,\n      767, 1056, 1406, 1822, 2308, 2869, 3510, 4234,\n      5046, 5950, 6950, 8051, 9256, 10569, 11994, 13535,\n      15195, 16978, 18888, 20929, 23104, 25416, 27870, 30468,\n      33214, 36112, 39165, 42376, 45749, 49286, 52992, 56869,\n      60921, 65150, 69560, 74155, 78937, 83909, 89075, 94438\n    ];\n\n    for (uint8 i = 0; i < totalPeriods; i++) {\n\n      if (totalPeriods == 24) {\n        periods.push(accumDistribution24[i]);\n      } else {\n        periods.push(accumDistribution48[i]);\n      }\n\n    }\n  }\n\n  /**\n     @dev Returns the current period as a number from 0 to totalPeriods\n\n     @return the current period as a number from 0 to totalPeriods\n    */\n  function getCurrentPeriodIndex() public view returns(uint256) {\n    assert(block.timestamp >= startTimestamp);\n    return block.timestamp.sub(startTimestamp).\n      sub(totalPausedSeconds).\n      div(secondsPerPeriod);\n  }\n\n  /**\n     @dev calculates the accumulated distribution percentage as of now,\n     following the exponential distribution curve\n\n     @return the accumulated distribution percentage, used to calculate things\n     like the maximum amount that can be claimed by the foundation\n    */\n  function getAccumulatedDistributionPercentage() public view returns(uint256 percentage) {\n    uint256 period = getCurrentPeriodIndex();\n\n    assert(period < totalPeriods);\n\n    return periods[period];\n  }\n\n  /**\n     @dev returns the current buy price at which the MVM offers to buy tokens to\n     burn them\n\n     @return the current buy price (in eth/lif, multiplied by PRICE_FACTOR)\n    */\n  function getBuyPrice() public view returns (uint256 price) {\n    uint256 accumulatedDistributionPercentage = getAccumulatedDistributionPercentage();\n\n    return initialBuyPrice.\n      mul(PRICE_FACTOR.sub(accumulatedDistributionPercentage)).\n      div(PRICE_FACTOR);\n  }\n\n  /**\n     @dev Returns the maximum amount of wei that the foundation can claim. It's\n     a portion of the ETH that was not claimed by token holders\n\n     @return the maximum wei claimable by the foundation as of now\n    */\n  function getMaxClaimableWeiAmount() public view returns (uint256) {\n    if (isFinished()) {\n      return this.balance;\n    } else {\n      uint256 claimableFromReimbursed = initialBuyPrice.\n        mul(totalBurnedTokens).div(PRICE_FACTOR).\n        sub(totalReimbursedWei);\n      uint256 currentCirculation = lifToken.totalSupply();\n      uint256 accumulatedDistributionPercentage = getAccumulatedDistributionPercentage();\n      uint256 maxClaimable = initialWei.\n        mul(accumulatedDistributionPercentage).div(PRICE_FACTOR).\n        mul(currentCirculation).div(originalTotalSupply).\n        add(claimableFromReimbursed);\n\n      if (maxClaimable > totalWeiClaimed) {\n        return maxClaimable.sub(totalWeiClaimed);\n      } else {\n        return 0;\n      }\n    }\n  }\n\n  /**\n     @dev allows to send tokens to the MVM in exchange of Eth at the price\n     determined by getBuyPrice. The tokens are burned\n    */\n  function sendTokens(uint256 tokens) public whenNotPaused {\n    require(tokens > 0);\n\n    uint256 price = getBuyPrice();\n    uint256 totalWei = tokens.mul(price).div(PRICE_FACTOR);\n\n    lifToken.transferFrom(msg.sender, address(this), tokens);\n    lifToken.burn(tokens);\n    totalBurnedTokens = totalBurnedTokens.add(tokens);\n\n    SentTokens(msg.sender, price, tokens, totalWei);\n\n    totalReimbursedWei = totalReimbursedWei.add(totalWei);\n    msg.sender.transfer(totalWei);\n  }\n\n  /**\n     @dev Returns whether the MVM end-of-life has been reached. When that\n     happens no more tokens can be sent to the MVM and the foundation can claim\n     100% of the remaining balance in the MVM\n\n     @return true if the MVM end-of-life has been reached\n    */\n  function isFinished() public view returns (bool finished) {\n    return getCurrentPeriodIndex() >= totalPeriods;\n  }\n\n  /**\n     @dev Called from the foundation wallet to claim eth back from the MVM.\n     Maximum amount that can be claimed is determined by\n     getMaxClaimableWeiAmount\n    */\n  function claimWei(uint256 weiAmount) public whenNotPaused {\n    require(msg.sender == foundationAddr);\n\n    uint256 claimable = getMaxClaimableWeiAmount();\n\n    assert(claimable >= weiAmount);\n\n    foundationAddr.transfer(weiAmount);\n\n    totalWeiClaimed = totalWeiClaimed.add(weiAmount);\n\n    ClaimedWei(weiAmount);\n  }\n\n  /**\n     @dev Pauses the MVM. No tokens can be sent to the MVM and no eth can be\n     claimed from the MVM while paused. MVM total lifetime is extended by the\n     period it stays paused\n    */\n  function pause() public onlyOwner whenNotPaused {\n    paused = true;\n    pausedTimestamp = block.timestamp;\n\n    Pause();\n  }\n\n  /**\n     @dev Unpauses the MVM. See `pause` for more details about pausing\n    */\n  function unpause() public onlyOwner whenPaused {\n    uint256 pausedSeconds = block.timestamp.sub(pausedTimestamp);\n    totalPausedSeconds = totalPausedSeconds.add(pausedSeconds);\n    paused = false;\n\n    Unpause(pausedSeconds);\n  }\n\n}\n",
  "sourcePath": "/home/blackjak/winding-tree/LifToken/contracts/LifMarketValidationMechanism.sol",
  "compiler": {
    "name": "solc",
    "version": "0.4.18+commit.9cf6e910.Emscripten.clang"
  },
  "schemaVersion": "1.0.1",
  "updatedAt": "2018-01-30T01:37:56.660Z"
}