{
  "contractName": "LifToken",
  "abi": [
    {
      "constant": true,
      "inputs": [],
      "name": "mintingFinished",
      "outputs": [
        {
          "name": "",
          "type": "bool"
        }
      ],
      "payable": false,
      "stateMutability": "view",
      "type": "function"
    },
    {
      "constant": false,
      "inputs": [
        {
          "name": "_spender",
          "type": "address"
        },
        {
          "name": "_value",
          "type": "uint256"
        }
      ],
      "name": "approve",
      "outputs": [
        {
          "name": "",
          "type": "bool"
        }
      ],
      "payable": false,
      "stateMutability": "nonpayable",
      "type": "function"
    },
    {
      "constant": true,
      "inputs": [],
      "name": "totalSupply",
      "outputs": [
        {
          "name": "",
          "type": "uint256"
        }
      ],
      "payable": false,
      "stateMutability": "view",
      "type": "function"
    },
    {
      "constant": false,
      "inputs": [
        {
          "name": "_from",
          "type": "address"
        },
        {
          "name": "_to",
          "type": "address"
        },
        {
          "name": "_value",
          "type": "uint256"
        }
      ],
      "name": "transferFrom",
      "outputs": [
        {
          "name": "",
          "type": "bool"
        }
      ],
      "payable": false,
      "stateMutability": "nonpayable",
      "type": "function"
    },
    {
      "constant": true,
      "inputs": [],
      "name": "DECIMALS",
      "outputs": [
        {
          "name": "",
          "type": "uint256"
        }
      ],
      "payable": false,
      "stateMutability": "view",
      "type": "function"
    },
    {
      "constant": false,
      "inputs": [],
      "name": "unpause",
      "outputs": [],
      "payable": false,
      "stateMutability": "nonpayable",
      "type": "function"
    },
    {
      "constant": false,
      "inputs": [
        {
          "name": "_to",
          "type": "address"
        },
        {
          "name": "_amount",
          "type": "uint256"
        }
      ],
      "name": "mint",
      "outputs": [
        {
          "name": "",
          "type": "bool"
        }
      ],
      "payable": false,
      "stateMutability": "nonpayable",
      "type": "function"
    },
    {
      "constant": false,
      "inputs": [
        {
          "name": "_value",
          "type": "uint256"
        }
      ],
      "name": "burn",
      "outputs": [],
      "payable": false,
      "stateMutability": "nonpayable",
      "type": "function"
    },
    {
      "constant": true,
      "inputs": [],
      "name": "paused",
      "outputs": [
        {
          "name": "",
          "type": "bool"
        }
      ],
      "payable": false,
      "stateMutability": "view",
      "type": "function"
    },
    {
      "constant": false,
      "inputs": [
        {
          "name": "_spender",
          "type": "address"
        },
        {
          "name": "_subtractedValue",
          "type": "uint256"
        }
      ],
      "name": "decreaseApproval",
      "outputs": [
        {
          "name": "success",
          "type": "bool"
        }
      ],
      "payable": false,
      "stateMutability": "nonpayable",
      "type": "function"
    },
    {
      "constant": true,
      "inputs": [
        {
          "name": "_owner",
          "type": "address"
        }
      ],
      "name": "balanceOf",
      "outputs": [
        {
          "name": "balance",
          "type": "uint256"
        }
      ],
      "payable": false,
      "stateMutability": "view",
      "type": "function"
    },
    {
      "constant": false,
      "inputs": [],
      "name": "finishMinting",
      "outputs": [
        {
          "name": "",
          "type": "bool"
        }
      ],
      "payable": false,
      "stateMutability": "nonpayable",
      "type": "function"
    },
    {
      "constant": false,
      "inputs": [],
      "name": "pause",
      "outputs": [],
      "payable": false,
      "stateMutability": "nonpayable",
      "type": "function"
    },
    {
      "constant": true,
      "inputs": [],
      "name": "owner",
      "outputs": [
        {
          "name": "",
          "type": "address"
        }
      ],
      "payable": false,
      "stateMutability": "view",
      "type": "function"
    },
    {
      "constant": false,
      "inputs": [
        {
          "name": "burner",
          "type": "address"
        },
        {
          "name": "_value",
          "type": "uint256"
        }
      ],
      "name": "burn",
      "outputs": [],
      "payable": false,
      "stateMutability": "nonpayable",
      "type": "function"
    },
    {
      "constant": true,
      "inputs": [],
      "name": "NAME",
      "outputs": [
        {
          "name": "",
          "type": "string"
        }
      ],
      "payable": false,
      "stateMutability": "view",
      "type": "function"
    },
    {
      "constant": false,
      "inputs": [
        {
          "name": "_to",
          "type": "address"
        },
        {
          "name": "_value",
          "type": "uint256"
        }
      ],
      "name": "transfer",
      "outputs": [
        {
          "name": "",
          "type": "bool"
        }
      ],
      "payable": false,
      "stateMutability": "nonpayable",
      "type": "function"
    },
    {
      "constant": false,
      "inputs": [
        {
          "name": "_spender",
          "type": "address"
        },
        {
          "name": "_addedValue",
          "type": "uint256"
        }
      ],
      "name": "increaseApproval",
      "outputs": [
        {
          "name": "success",
          "type": "bool"
        }
      ],
      "payable": false,
      "stateMutability": "nonpayable",
      "type": "function"
    },
    {
      "constant": true,
      "inputs": [
        {
          "name": "_owner",
          "type": "address"
        },
        {
          "name": "_spender",
          "type": "address"
        }
      ],
      "name": "allowance",
      "outputs": [
        {
          "name": "",
          "type": "uint256"
        }
      ],
      "payable": false,
      "stateMutability": "view",
      "type": "function"
    },
    {
      "constant": false,
      "inputs": [
        {
          "name": "newOwner",
          "type": "address"
        }
      ],
      "name": "transferOwnership",
      "outputs": [],
      "payable": false,
      "stateMutability": "nonpayable",
      "type": "function"
    },
    {
      "constant": true,
      "inputs": [],
      "name": "SYMBOL",
      "outputs": [
        {
          "name": "",
          "type": "string"
        }
      ],
      "payable": false,
      "stateMutability": "view",
      "type": "function"
    },
    {
      "anonymous": false,
      "inputs": [],
      "name": "Pause",
      "type": "event"
    },
    {
      "anonymous": false,
      "inputs": [],
      "name": "Unpause",
      "type": "event"
    },
    {
      "anonymous": false,
      "inputs": [
        {
          "indexed": true,
          "name": "to",
          "type": "address"
        },
        {
          "indexed": false,
          "name": "amount",
          "type": "uint256"
        }
      ],
      "name": "Mint",
      "type": "event"
    },
    {
      "anonymous": false,
      "inputs": [],
      "name": "MintFinished",
      "type": "event"
    },
    {
      "anonymous": false,
      "inputs": [
        {
          "indexed": true,
          "name": "previousOwner",
          "type": "address"
        },
        {
          "indexed": true,
          "name": "newOwner",
          "type": "address"
        }
      ],
      "name": "OwnershipTransferred",
      "type": "event"
    },
    {
      "anonymous": false,
      "inputs": [
        {
          "indexed": true,
          "name": "owner",
          "type": "address"
        },
        {
          "indexed": true,
          "name": "spender",
          "type": "address"
        },
        {
          "indexed": false,
          "name": "value",
          "type": "uint256"
        }
      ],
      "name": "Approval",
      "type": "event"
    },
    {
      "anonymous": false,
      "inputs": [
        {
          "indexed": true,
          "name": "from",
          "type": "address"
        },
        {
          "indexed": true,
          "name": "to",
          "type": "address"
        },
        {
          "indexed": false,
          "name": "value",
          "type": "uint256"
        }
      ],
      "name": "Transfer",
      "type": "event"
    }
  ],
  "bytecode": "0x606060405260038054600160b060020a03191633600160a060020a0316179055610f698061002e6000396000f30060606040526004361061011c5763ffffffff7c010000000000000000000000000000000000000000000000000000000060003504166305d2035b8114610121578063095ea7b31461014857806318160ddd1461016a57806323b872dd1461018f5780632e0f2625146101b75780633f4ba83a146101ca57806340c10f19146101df57806342966c68146102015780635c975abb14610217578063661884631461022a57806370a082311461024c5780637d64bcb41461026b5780638456cb591461027e5780638da5cb5b146102915780639dc29fac146102c0578063a3f4df7e146102e2578063a9059cbb1461036c578063d73dd6231461038e578063dd62ed3e146103b0578063f2fde38b146103d5578063f76f8d78146103f4575b600080fd5b341561012c57600080fd5b610134610407565b604051901515815260200160405180910390f35b341561015357600080fd5b610134600160a060020a0360043516602435610417565b341561017557600080fd5b61017d610442565b60405190815260200160405180910390f35b341561019a57600080fd5b610134600160a060020a0360043581169060243516604435610448565b34156101c257600080fd5b61017d610475565b34156101d557600080fd5b6101dd61047a565b005b34156101ea57600080fd5b610134600160a060020a03600435166024356104fa565b341561020c57600080fd5b6101dd6004356105f6565b341561022257600080fd5b6101346106ba565b341561023557600080fd5b610134600160a060020a03600435166024356106ca565b341561025757600080fd5b61017d600160a060020a03600435166106ee565b341561027657600080fd5b610134610709565b341561028957600080fd5b6101dd610794565b341561029c57600080fd5b6102a4610819565b604051600160a060020a03909116815260200160405180910390f35b34156102cb57600080fd5b6101dd600160a060020a0360043516602435610828565b34156102ed57600080fd5b6102f5610908565b60405160208082528190810183818151815260200191508051906020019080838360005b83811015610331578082015183820152602001610319565b50505050905090810190601f16801561035e5780820380516001836020036101000a031916815260200191505b509250505060405180910390f35b341561037757600080fd5b610134600160a060020a036004351660243561093f565b341561039957600080fd5b610134600160a060020a0360043516602435610963565b34156103bb57600080fd5b61017d600160a060020a0360043581169060243516610987565b34156103e057600080fd5b6101dd600160a060020a03600435166109b2565b34156103ff57600080fd5b6102f5610a4d565b60035460a060020a900460ff1681565b60035460009060a860020a900460ff161561043157600080fd5b61043b8383610a84565b9392505050565b60015490565b60035460009060a860020a900460ff161561046257600080fd5b61046d848484610af0565b949350505050565b601281565b60035433600160a060020a0390811691161461049557600080fd5b60035460a860020a900460ff1615156104ad57600080fd5b6003805475ff000000000000000000000000000000000000000000191690557f7805862f689e2f13df9f062ff482ad3ad112aca9e0847911ed832e158c525b3360405160405180910390a1565b60035460009033600160a060020a0390811691161461051857600080fd5b60035460a060020a900460ff161561052f57600080fd5b600154610542908363ffffffff610c5e16565b600155600160a060020a03831660009081526020819052604090205461056e908363ffffffff610c5e16565b600160a060020a0384166000818152602081905260409081902092909255907f0f6798a560793a54c3bcfe86a93cde1e73087d944c0ea20544137d41213968859084905190815260200160405180910390a2600160a060020a0383166000600080516020610f1e8339815191528460405190815260200160405180910390a350600192915050565b60035460a860020a900460ff161561060d57600080fd5b600160a060020a03331660009081526020819052604090205481111561063257600080fd5b600160a060020a03331660009081526020819052604090205461065b908263ffffffff610c6d16565b600160a060020a033316600090815260208190526040902055600154610687908263ffffffff610c6d16565b600155600033600160a060020a0316600080516020610f1e8339815191528360405190815260200160405180910390a350565b60035460a860020a900460ff1681565b60035460009060a860020a900460ff16156106e457600080fd5b61043b8383610c7f565b600160a060020a031660009081526020819052604090205490565b60035460009033600160a060020a0390811691161461072757600080fd5b60035460a060020a900460ff161561073e57600080fd5b6003805474ff0000000000000000000000000000000000000000191660a060020a1790557fae5184fba832cb2b1f702aca6117b8d265eaf03ad33eb133f19dde0f5920fa0860405160405180910390a150600190565b60035433600160a060020a039081169116146107af57600080fd5b60035460a860020a900460ff16156107c657600080fd5b6003805475ff000000000000000000000000000000000000000000191660a860020a1790557f6985a02210a168e66602d3235cb6db0e70f92b3ba4d376a33c0f3d9434bff62560405160405180910390a1565b600354600160a060020a031681565b60035433600160a060020a0390811691161461084357600080fd5b60035460a060020a900460ff161561085a57600080fd5b600160a060020a03821660009081526020819052604090205481111561087f57600080fd5b600160a060020a0382166000908152602081905260409020546108a8908263ffffffff610c6d16565b600160a060020a0383166000908152602081905260409020556001546108d4908263ffffffff610c6d16565b6001556000600160a060020a038316600080516020610f1e8339815191528360405190815260200160405180910390a35050565b60408051908101604052600481527f4cc3ad6600000000000000000000000000000000000000000000000000000000602082015281565b60035460009060a860020a900460ff161561095957600080fd5b61043b8383610d79565b60035460009060a860020a900460ff161561097d57600080fd5b61043b8383610e79565b600160a060020a03918216600090815260026020908152604080832093909416825291909152205490565b60035433600160a060020a039081169116146109cd57600080fd5b600160a060020a03811615156109e257600080fd5b600354600160a060020a0380831691167f8be0079c531659141344cd1fd0a4f28419497f9722a3daafe3b4186f6b6457e060405160405180910390a36003805473ffffffffffffffffffffffffffffffffffffffff1916600160a060020a0392909216919091179055565b60408051908101604052600381527f4c49460000000000000000000000000000000000000000000000000000000000602082015281565b600160a060020a03338116600081815260026020908152604080832094871680845294909152808220859055909291907f8c5be1e5ebec7d5bd14f71427d1e84f3dd0314c0f7b2291e5b200ac8c7c3b9259085905190815260200160405180910390a350600192915050565b6000600160a060020a0383161515610b0757600080fd5b600160a060020a038416600090815260208190526040902054821115610b2c57600080fd5b600160a060020a0380851660009081526002602090815260408083203390941683529290522054821115610b5f57600080fd5b600160a060020a038416600090815260208190526040902054610b88908363ffffffff610c6d16565b600160a060020a038086166000908152602081905260408082209390935590851681522054610bbd908363ffffffff610c5e16565b600160a060020a0380851660009081526020818152604080832094909455878316825260028152838220339093168252919091522054610c03908363ffffffff610c6d16565b600160a060020a0380861660008181526002602090815260408083203386168452909152908190209390935590851691600080516020610f1e8339815191529085905190815260200160405180910390a35060019392505050565b60008282018381101561043b57fe5b600082821115610c7957fe5b50900390565b600160a060020a03338116600090815260026020908152604080832093861683529290529081205480831115610cdc57600160a060020a033381166000908152600260209081526040808320938816835292905290812055610d13565b610cec818463ffffffff610c6d16565b600160a060020a033381166000908152600260209081526040808320938916835292905220555b600160a060020a0333811660008181526002602090815260408083209489168084529490915290819020547f8c5be1e5ebec7d5bd14f71427d1e84f3dd0314c0f7b2291e5b200ac8c7c3b925915190815260200160405180910390a35060019392505050565b6000600160a060020a0383161515610d9057600080fd5b600160a060020a033316600090815260208190526040902054821115610db557600080fd5b600160a060020a033316600090815260208190526040902054610dde908363ffffffff610c6d16565b600160a060020a033381166000908152602081905260408082209390935590851681522054610e13908363ffffffff610c5e16565b60008085600160a060020a0316600160a060020a031681526020019081526020016000208190555082600160a060020a031633600160a060020a0316600080516020610f1e8339815191528460405190815260200160405180910390a350600192915050565b600160a060020a033381166000908152600260209081526040808320938616835292905290812054610eb1908363ffffffff610c5e16565b600160a060020a0333811660008181526002602090815260408083209489168084529490915290819020849055919290917f8c5be1e5ebec7d5bd14f71427d1e84f3dd0314c0f7b2291e5b200ac8c7c3b92591905190815260200160405180910390a3506001929150505600ddf252ad1be2c89b69c2b068fc378daa952ba7f163c4a11628f55a4df523b3efa165627a7a7230582063271a187971665c21fa974e606572dafefcd48f897d356a24234c91268a4ee20029",
  "source": "pragma solidity ^0.4.18;\n\nimport \"zeppelin-solidity/contracts/token/ERC20/StandardToken.sol\";\nimport \"zeppelin-solidity/contracts/token/ERC20/MintableToken.sol\";\nimport \"zeppelin-solidity/contracts/token/ERC20/PausableToken.sol\";\n\n/**\n   @title Líf, the Winding Tree token\n\n   Implementation of Líf, the ERC827 token for Winding Tree, an extension of the\n   ERC20 token with extra methods to transfer value and data to execute a call\n   on transfer.\n   Uses OpenZeppelin StandardToken, ERC827Token, MintableToken and PausableToken.\n */\ncontract LifToken is StandardToken, MintableToken, PausableToken {\n  // Token Name\n  string public constant NAME = \"Líf\";\n\n  // Token Symbol\n  string public constant SYMBOL = \"LIF\";\n\n  // Token decimals\n  uint public constant DECIMALS = 18;\n\n  /**\n   * @dev Burns a specific amount of tokens.\n   *\n   * @param _value The amount of tokens to be burned.\n   */\n  function burn(uint256 _value) public whenNotPaused {\n\n    require(_value <= balances[msg.sender]);\n\n    balances[msg.sender] = balances[msg.sender].sub(_value);\n    totalSupply_ = totalSupply_.sub(_value);\n\n    // a Transfer event to 0x0 can be useful for observers to keep track of\n    // all the Lif by just looking at those events\n    Transfer(msg.sender, address(0), _value);\n  }\n\n  /**\n   * @dev Burns a specific amount of tokens of an address\n   * This function can be called only by the owner in the minting process\n   *\n   * @param _value The amount of tokens to be burned.\n   */\n  function burn(address burner, uint256 _value) public onlyOwner {\n\n    require(!mintingFinished);\n\n    require(_value <= balances[burner]);\n\n    balances[burner] = balances[burner].sub(_value);\n    totalSupply_ = totalSupply_.sub(_value);\n\n    // a Transfer event to 0x0 can be useful for observers to keep track of\n    // all the Lif by just looking at those events\n    Transfer(burner, address(0), _value);\n  }\n}\n",
  "sourcePath": "/home/blackjak/winding-tree/LifToken/contracts/LifToken.sol",
  "compiler": {
    "name": "solc",
    "version": "0.4.18+commit.9cf6e910.Emscripten.clang"
  },
  "schemaVersion": "1.0.1",
  "updatedAt": "2018-01-30T01:37:56.666Z"
}