{
  "contractName": "Message",
  "abi": [
    {
      "constant": false,
      "inputs": [
        {
          "name": "to",
          "type": "address"
        },
        {
          "name": "data",
          "type": "bytes"
        }
      ],
      "name": "call",
      "outputs": [
        {
          "name": "",
          "type": "bool"
        }
      ],
      "payable": false,
      "stateMutability": "nonpayable",
      "type": "function"
    },
    {
      "constant": true,
      "inputs": [
        {
          "name": "_message",
          "type": "bytes32"
        },
        {
          "name": "_number",
          "type": "uint256"
        },
        {
          "name": "_text",
          "type": "string"
        }
      ],
      "name": "showMessage",
      "outputs": [],
      "payable": false,
      "stateMutability": "view",
      "type": "function"
    },
    {
      "constant": false,
      "inputs": [],
      "name": "fail",
      "outputs": [],
      "payable": false,
      "stateMutability": "nonpayable",
      "type": "function"
    },
    {
      "anonymous": false,
      "inputs": [
        {
          "indexed": false,
          "name": "b32",
          "type": "bytes32"
        },
        {
          "indexed": false,
          "name": "number",
          "type": "uint256"
        },
        {
          "indexed": false,
          "name": "text",
          "type": "string"
        }
      ],
      "name": "Show",
      "type": "event"
    }
  ],
  "bytecode": "0x6060604052341561000f57600080fd5b6102c78061001e6000396000f3006060604052600436106100565763ffffffff7c01000000000000000000000000000000000000000000000000000000006000350416631b8b921d811461005b5780636e2e2e4d146100db578063a9cc471814610139575b600080fd5b341561006657600080fd5b6100c76004803573ffffffffffffffffffffffffffffffffffffffff169060446024803590810190830135806020601f8201819004810201604051908101604052818152929190602084018383808284375094965061014c95505050505050565b604051901515815260200160405180910390f35b34156100e657600080fd5b610137600480359060248035919060649060443590810190830135806020601f820181900481020160405190810160405281815292919060208401838380828437509496506101ed95505050505050565b005b341561014457600080fd5b610137610056565b60008273ffffffffffffffffffffffffffffffffffffffff168260405180828051906020019080838360005b83811015610190578082015183820152602001610178565b50505050905090810190601f1680156101bd5780820380516001836020036101000a031916815260200191505b5091505060006040518083038160008661646e5a03f1915050156101e3575060016101e7565b5060005b92915050565b7f53f52bd5d580b08520e25370d30be415b61c6ff8e378023685ca03eec817b10f8383836040518381526020810183905260606040820181815290820183818151815260200191508051906020019080838360005b8381101561025a578082015183820152602001610242565b50505050905090810190601f1680156102875780820380516001836020036101000a031916815260200191505b5094505050505060405180910390a15050505600a165627a7a723058204566ea2530db473e2d8a6069db94f84a02ce2bcc2dccaa44b258a31fa161b5f20029",
  "source": "pragma solidity ^0.4.18;\n\ncontract Message {\n\n    event Show(bytes32 b32, uint256 number, string text);\n\n    function showMessage(bytes32 _message, uint256 _number, string _text) public view {\n\n      Show(_message, _number, _text);\n\n    }\n\n    function fail() public {\n\n      revert();\n\n    }\n\n    function call(address to, bytes data) public returns (bool) {\n      if (to.call(data))\n        return true;\n      else\n        return false;\n    }\n\n}\n",
  "sourcePath": "/home/blackjak/winding-tree/LifToken/contracts/test-helpers/Message.sol",
  "compiler": {
    "name": "solc",
    "version": "0.4.18+commit.9cf6e910.Emscripten.clang"
  },
  "schemaVersion": "1.0.1",
  "updatedAt": "2018-01-30T01:37:56.669Z"
}