{
  "contractName": "TGEDeployer",
  "abi": [
    {
      "constant": true,
      "inputs": [],
      "name": "wallet",
      "outputs": [
        {
          "name": "",
          "type": "address"
        }
      ],
      "payable": false,
      "stateMutability": "view",
      "type": "function"
    },
    {
      "constant": true,
      "inputs": [],
      "name": "owner",
      "outputs": [
        {
          "name": "",
          "type": "address"
        }
      ],
      "payable": false,
      "stateMutability": "view",
      "type": "function"
    },
    {
      "constant": true,
      "inputs": [],
      "name": "crowdsale",
      "outputs": [
        {
          "name": "",
          "type": "address"
        }
      ],
      "payable": false,
      "stateMutability": "view",
      "type": "function"
    },
    {
      "constant": false,
      "inputs": [
        {
          "name": "weiPerUSDinTGE",
          "type": "uint256"
        }
      ],
      "name": "finish",
      "outputs": [],
      "payable": false,
      "stateMutability": "nonpayable",
      "type": "function"
    },
    {
      "constant": false,
      "inputs": [
        {
          "name": "contributors",
          "type": "address[]"
        },
        {
          "name": "values",
          "type": "uint256[]"
        },
        {
          "name": "rate",
          "type": "uint256"
        }
      ],
      "name": "addPresaleTokens",
      "outputs": [],
      "payable": false,
      "stateMutability": "nonpayable",
      "type": "function"
    },
    {
      "inputs": [
        {
          "name": "startTimestamp",
          "type": "uint256"
        },
        {
          "name": "end1Timestamp",
          "type": "uint256"
        },
        {
          "name": "end2Timestamp",
          "type": "uint256"
        },
        {
          "name": "rate1",
          "type": "uint256"
        },
        {
          "name": "rate2",
          "type": "uint256"
        },
        {
          "name": "setWeiLockSeconds",
          "type": "uint256"
        },
        {
          "name": "foundationWallet",
          "type": "address"
        },
        {
          "name": "foundersWallet",
          "type": "address"
        }
      ],
      "payable": false,
      "stateMutability": "nonpayable",
      "type": "constructor"
    }
  ],
  "bytecode": "0x6060604052341561000f57600080fd5b6040516101008061467e833981016040528080519190602001805191906020018051919060200180519190602001805191906020018051919060200180519190602001805191508890508787878787878761006861010f565b97885260208801969096526040808801959095526060870193909352608086019190915260a0850152600160a060020a0390811660c085015290911660e08301526101009091019051809103906000f08015156100c457600080fd5b60008054600160a060020a0319908116600160a060020a0393841617909155600180548216948316949094179093556002805490931633909116179091555061011f95505050505050565b6040516141cc806104b283390190565b6103848061012e6000396000f3006060604052600436106100535763ffffffff60e060020a600035041663521eb27381146100585780638da5cb5b146100875780639c1e03a01461009a578063d353a1cb146100ad578063d77a39c9146100c5575b600080fd5b341561006357600080fd5b61006b610156565b604051600160a060020a03909116815260200160405180910390f35b341561009257600080fd5b61006b610165565b34156100a557600080fd5b61006b610174565b34156100b857600080fd5b6100c3600435610183565b005b34156100d057600080fd5b6100c3600460248135818101908301358060208181020160405190810160405280939291908181526020018383602002808284378201915050505050509190803590602001908201803590602001908080602002602001604051908101604052809392919081815260200183836020028082843750949650509335935061026892505050565b600154600160a060020a031681565b600254600160a060020a031681565b600054600160a060020a031681565b60025433600160a060020a0390811691161461019e57600080fd5b600054600160a060020a0316636274ca4b8260405160e060020a63ffffffff84160281526004810191909152602401600060405180830381600087803b15156101e657600080fd5b6102c65a03f115156101f757600080fd5b5050600054600154600160a060020a03918216925063f2fde38b911660405160e060020a63ffffffff8416028152600160a060020a039091166004820152602401600060405180830381600087803b151561025157600080fd5b6102c65a03f1151561026257600080fd5b50505050565b60025460009033600160a060020a0390811691161461028657600080fd5b825184511461029457600080fd5b5060005b83518163ffffffff16101561026257600054600160a060020a031663a5878c658563ffffffff8416815181106102ca57fe5b90602001906020020151858463ffffffff16815181106102e657fe5b906020019060200201518560405160e060020a63ffffffff8616028152600160a060020a03909316600484015260248301919091526044820152606401600060405180830381600087803b151561033c57600080fd5b6102c65a03f1151561034d57600080fd5b5050506001016102985600a165627a7a72305820e2ea87d00ce268199927522bfbc319a9dd7756d8f1c217307dc06160270c3013002960606040526000805460a060020a60ff0219168155624c4b40600755629896806008556302625a00600955600a819055600b556014805460ff1916905534156200004857600080fd5b60405161010080620041cc833981016040528080519190602001805191906020018051919060200180519190602001805191906020018051919060200180519190602001805160008054600160a060020a03191633600160a060020a0316179055915050428811620000b957600080fd5b878711620000c657600080fd5b868611620000d357600080fd5b60008511620000e157600080fd5b60008411620000ef57600080fd5b60008311620000fd57600080fd5b600160a060020a03821615156200011357600080fd5b600160a060020a03811615156200012957600080fd5b620001336200021b565b604051809103906000f08015156200014a57600080fd5b60018054600160a060020a031916600160a060020a03928316179081905516638456cb596040518163ffffffff167c0100000000000000000000000000000000000000000000000000000000028152600401600060405180830381600087803b1515620001b657600080fd5b6102c65a03f11515620001c857600080fd5b505050600297909755600395909555600493909355600c91909155600d55600b5560058054600160a060020a03928316600160a060020a031991821617909155600680549290931691161790556200022c565b604051610f97806200323583390190565b612ff9806200023c6000396000f300606060405260043610620001a95763ffffffff60e060020a6000350416631bfaf1558114620001b65780633f4ba83a14620001e85780634042b66f14620001fe578063518ab2a814620002265780635a388a43146200023c5780635c975abb14620002525780635d91e27b146200027c5780636274ca4b1462000292578063679aefce14620002ab5780636b7ae8dc14620002c15780636c9789b014620002d7578063816f343814620002f2578063842a77d314620003085780638456cb59146200032a5780638d4e408314620003405780638da5cb5b1462000356578063a5878c65146200036c578063ad6860111462000394578063b7cdddcb14620003b6578063bbb0c05414620003cc578063ca25677114620003e2578063cf85496914620003f8578063d12a6049146200040e578063ded317a81462000424578063e29f610d146200043a578063e6fd48bc1462000450578063ec8ac4d81462000466578063f2fde38b146200047c578063f3a504f2146200049e578063f4fab74814620004b4578063f555b81514620004ca578063f5d05f7e14620004e0578063fc0c546a14620004f6575b620001b4336200050c565b005b3415620001c257600080fd5b620001cc620006f5565b604051600160a060020a03909116815260200160405180910390f35b3415620001f457600080fd5b620001b462000704565b34156200020a57600080fd5b6200021462000785565b60405190815260200160405180910390f35b34156200023257600080fd5b620002146200078b565b34156200024857600080fd5b620001cc62000791565b34156200025e57600080fd5b62000268620007a0565b604051901515815260200160405180910390f35b34156200028857600080fd5b62000214620007b0565b34156200029e57600080fd5b620001b4600435620007b6565b3415620002b757600080fd5b6200021462000805565b3415620002cd57600080fd5b620001cc6200084a565b3415620002e357600080fd5b620001b4600435151562000859565b3415620002fe57600080fd5b62000214620009bc565b34156200031457600080fd5b62000214600160a060020a0360043516620009c2565b34156200033657600080fd5b620001b4620009d4565b34156200034c57600080fd5b6200026862000a5a565b34156200036257600080fd5b620001cc62000a63565b34156200037857600080fd5b620001b4600160a060020a036004351660243560443562000a72565b3415620003a057600080fd5b620001b4600160a060020a036004351662000bc4565b3415620003c257600080fd5b620001b462000d84565b3415620003d857600080fd5b620001cc62000e3c565b3415620003ee57600080fd5b6200021462000e4b565b34156200040457600080fd5b6200021462000e51565b34156200041a57600080fd5b6200021462000e57565b34156200043057600080fd5b6200021462000e5d565b34156200044657600080fd5b6200021462000e63565b34156200045c57600080fd5b6200021462000e69565b620001b4600160a060020a03600435166200050c565b34156200048857600080fd5b620001b4600160a060020a036004351662000e6f565b3415620004aa57600080fd5b6200026862000f0c565b3415620004c057600080fd5b6200021462000f3d565b3415620004d657600080fd5b6200021462000f43565b3415620004ec57600080fd5b620001cc62000f49565b34156200050257600080fd5b620001cc62000f58565b600080548190819060a060020a900460ff16156200052957600080fd5b60008060025442101580156200054157506004544211155b915050341515818015620005525750805b15156200055b57fe5b600160a060020a03861615156200057157600080fd5b600a54600090116200057f57fe5b3494506200058c62000805565b9350600084116200059957fe5b620005ab858563ffffffff62000f6716565b600e54909350620005c3908663ffffffff62000fa116565b600e55600160a060020a038616600090815260136020526040902054620005f1908663ffffffff62000fa116565b600160a060020a038716600090815260136020526040902055600f546200061f908463ffffffff62000fa116565b600f55600154600160a060020a03166340c10f19878560006040516020015260405160e060020a63ffffffff8516028152600160a060020a0390921660048301526024820152604401602060405180830381600087803b15156200068257600080fd5b6102c65a03f115156200069457600080fd5b505050604051805190505085600160a060020a031633600160a060020a03167f623b3804fa71d67900d064613da8f94b9617215ee90799290593e1745087ad18878660405191825260208201526040908101905180910390a3505050505050565b600654600160a060020a031681565b60005433600160a060020a039081169116146200072057600080fd5b60005460a060020a900460ff1615156200073957600080fd5b6000805474ff0000000000000000000000000000000000000000191690557f7805862f689e2f13df9f062ff482ad3ad112aca9e0847911ed832e158c525b3360405160405180910390a1565b600e5481565b600f5481565b601254600160a060020a031681565b60005460a060020a900460ff1681565b60095481565b60005433600160a060020a03908116911614620007d257600080fd5b60008111620007e057600080fd5b600b54600254620007f79163ffffffff62000fb116565b42106200080057fe5b600a55565b60006002544210156200081b5750600062000847565b60035442116200082f5750600c5462000847565b6004544211620008435750600d5462000847565b5060005b90565b600554600160a060020a031681565b60005433600160a060020a039081169116146200087557600080fd5b60045442116200088157fe5b60145460ff16156200089257600080fd5b6200089c62000f0c565b156200098057620008ad8162000fc4565b600154600160a060020a0316637d64bcb46000604051602001526040518163ffffffff1660e060020a028152600401602060405180830381600087803b1515620008f657600080fd5b6102c65a03f115156200090857600080fd5b50505060405180515050600154600054600160a060020a039182169163f2fde38b911660405160e060020a63ffffffff8416028152600160a060020a039091166004820152602401600060405180830381600087803b15156200096a57600080fd5b6102c65a03f115156200097c57600080fd5b5050505b7f6823b073d48d6e3a7d385eeb601452d680e74bb46afe3255a7d778f3a9b1768160405160405180910390a1506014805460ff19166001179055565b60085481565b60136020526000908152604090205481565b60005433600160a060020a03908116911614620009f057600080fd5b60005460a060020a900460ff161562000a0857600080fd5b6000805474ff0000000000000000000000000000000000000000191660a060020a1790557f6985a02210a168e66602d3235cb6db0e70f92b3ba4d376a33c0f3d9434bff62560405160405180910390a1565b60145460ff1681565b600054600160a060020a031681565b6000805433600160a060020a0390811691161462000a8f57600080fd5b600254421062000a9e57600080fd5b600160a060020a038416151562000ab457600080fd5b6000831162000ac257600080fd5b600c54821162000ad157600080fd5b62000ae3838363ffffffff62000f6716565b600e5490915062000afb908463ffffffff62000fa116565b600e55600154600160a060020a03166340c10f19858360006040516020015260405160e060020a63ffffffff8516028152600160a060020a0390921660048301526024820152604401602060405180830381600087803b151562000b5e57600080fd5b6102c65a03f1151562000b7057600080fd5b50505060405180515050600160a060020a0384167f1dfc91d43d5ff31fe87a6c24f7139daad375b36cfd7d3c0dbf3d3cdebd7025dc848460405191825260208201526040908101905180910390a250505050565b6000806004544211151562000bd557fe5b60005433600160a060020a0390811691161462000bf157600080fd5b60145460ff161562000c0257600080fd5b600160a060020a0383166000908152601360205260408120549250821162000c2657fe5b600154600160a060020a03166370a082318460006040516020015260405160e060020a63ffffffff8416028152600160a060020a039091166004820152602401602060405180830381600087803b151562000c8057600080fd5b6102c65a03f1151562000c9257600080fd5b5050506040518051600e5490925062000cb391508363ffffffff62000fb116565b600e55600f5462000ccb908263ffffffff62000fb116565b600f55600154600160a060020a0316639dc29fac848360405160e060020a63ffffffff8516028152600160a060020a0390921660048301526024820152604401600060405180830381600087803b151562000d2557600080fd5b6102c65a03f1151562000d3757600080fd5b505050600160a060020a0383166000818152601360205260408082209190915583156108fc0290849051600060405180830381858888f19350505050151562000d7f57600080fd5b505050565b6000805460a060020a900460ff161562000d9d57600080fd5b600454421162000da957fe5b60145460ff16151562000dbb57600080fd5b62000dc562000f0c565b1562000dd057600080fd5b50600160a060020a03331660009081526013602052604081205490811162000df457fe5b600160a060020a0333166000818152601360205260408082209190915582156108fc0290839051600060405180830381858888f19350505050151562000e3957600080fd5b50565b601154600160a060020a031681565b600a5481565b600c5481565b600b5481565b60075481565b60035481565b60025481565b60005433600160a060020a0390811691161462000e8b57600080fd5b600160a060020a038116151562000ea157600080fd5b600054600160a060020a0380831691167f8be0079c531659141344cd1fd0a4f28419497f9722a3daafe3b4186f6b6457e060405160405180910390a36000805473ffffffffffffffffffffffffffffffffffffffff1916600160a060020a0392909216919091179055565b600080600a5411151562000f1c57fe5b600a5460075462000f339163ffffffff62000f6716565b600e541015905090565b60045481565b600d5481565b601054600160a060020a031681565b600154600160a060020a031681565b60008083151562000f7c576000915062000f9a565b5082820282848281151562000f8d57fe5b041462000f9657fe5b8091505b5092915050565b60008282018381101562000f9657fe5b60008282111562000fbe57fe5b50900390565b600080600062000fe2600a5460085462000f6790919063ffffffff16565b925082600e5411158062000ff4575083155b156200104657600554600160a060020a039081169030163180156108fc0290604051600060405180830381858888f1935050505015156200103457600080fd5b62001040601862001295565b6200128f565b62001062600160a060020a033016318463ffffffff62000fb116565b91506018905062001081600a5460095462000f6790919063ffffffff16565b8211156200108d575060305b600554600160a060020a031683156108fc0284604051600060405180830381858888f193505050501515620010c157600080fd5b600154600160a060020a0316620010e24262278d0063ffffffff62000fa116565b60055462278d00908490600160a060020a0316620010ff620017c6565b600160a060020a039586168152602081019490945260408085019390935260ff9091166060840152909216608082015260a0019051809103906000f08015156200114857600080fd5b6012805473ffffffffffffffffffffffffffffffffffffffff1916600160a060020a0392831617908190551663c0670d2c6040518163ffffffff1660e060020a028152600401600060405180830381600087803b1515620011a857600080fd5b6102c65a03f11515620011ba57600080fd5b505050620011cb8160ff1662001295565b601254600160a060020a031663b60d4288836040518263ffffffff1660e060020a0281526004016000604051808303818588803b15156200120b57600080fd5b6125ee5a03f115156200121d57600080fd5b5050601254600554600160a060020a03918216935063f2fde38b92501660405160e060020a63ffffffff8416028152600160a060020a039091166004820152602401600060405180830381600087803b15156200127957600080fd5b6102c65a03f115156200128b57600080fd5b5050505b50505050565b6001546000908190819081906200132d906103e8906200132090608090600160a060020a03166318160ddd86604051602001526040518163ffffffff1660e060020a028152600401602060405180830381600087803b1515620012f757600080fd5b6102c65a03f115156200130957600080fd5b505050604051805191905063ffffffff62000f6716565b9063ffffffff620017ae16565b6001549094506200138a906103e8906200132090603290600160a060020a03166318160ddd6000604051602001526040518163ffffffff1660e060020a028152600401602060405180830381600087803b1515620012f757600080fd5b600154909350620013e7906103e8906200132090604890600160a060020a03166318160ddd6000604051602001526040518163ffffffff1660e060020a028152600401602060405180830381600087803b1515620012f757600080fd5b600154909250429062278d0090603090600c908890600160a060020a03166200140f620017d7565b958652602086019490945260408086019390935260608501919091526080840152600160a060020a0390911660a083015260c09091019051809103906000f08015156200145b57600080fd5b6011805473ffffffffffffffffffffffffffffffffffffffff1916600160a060020a0392831617908190556001548216916340c10f1991168660006040516020015260405160e060020a63ffffffff8516028152600160a060020a0390921660048301526024820152604401602060405180830381600087803b1515620014e157600080fd5b6102c65a03f11515620014f357600080fd5b50505060405180515050601154600654600160a060020a039182169163f2fde38b911660405160e060020a63ffffffff8416028152600160a060020a039091166004820152602401600060405180830381600087803b15156200155557600080fd5b6102c65a03f115156200156757600080fd5b5062001593915062278d00905062001586878263ffffffff62000f6716565b9063ffffffff62000fa116565b9050620015a7428263ffffffff62000fa116565b60015462278d009087906000908790600160a060020a0316620015c9620017d7565b958652602086019490945260408086019390935260608501919091526080840152600160a060020a0390911660a083015260c09091019051809103906000f08015156200161557600080fd5b6010805473ffffffffffffffffffffffffffffffffffffffff1916600160a060020a0392831617908190556001548216916340c10f1991168560006040516020015260405160e060020a63ffffffff8516028152600160a060020a0390921660048301526024820152604401602060405180830381600087803b15156200169b57600080fd5b6102c65a03f11515620016ad57600080fd5b50505060405180515050601054600554600160a060020a039182169163f2fde38b911660405160e060020a63ffffffff8416028152600160a060020a039091166004820152602401600060405180830381600087803b15156200170f57600080fd5b6102c65a03f115156200172157600080fd5b5050600154600554600160a060020a0391821692506340c10f1991168460006040516020015260405160e060020a63ffffffff8516028152600160a060020a0390921660048301526024820152604401602060405180830381600087803b15156200178b57600080fd5b6102c65a03f115156200179d57600080fd5b505050604051805150505050505050565b6000808284811515620017bd57fe5b04949350505050565b6040516111b280620017e983390190565b604051610633806200299b83390190560060606040526000600781905560088190556009819055600a819055600c805461ffff19169055600d55341561003357600080fd5b60405160a0806111b2833981016040528080519190602001805191906020018051919060200180519190602001805160008054600160a060020a03191633600160a060020a039081169190911790915590925086161515905061009557600080fd5b4284116100a157600080fd5b600083116100ae57600080fd5b8160ff16601814806100c357508160ff166030145b15156100ce57600080fd5b600160a060020a03811615156100e357600080fd5b60018054600160a060020a03968716600160a060020a0319918216179091556004949094556005929092556006805460ff90921660ff19909216919091179055600280549190931691161790556110738061013f6000396000f3006060604052600436106101665763ffffffff60e060020a600035041663018a25e8811461016b57806335a6c1e01461019057806338fab8c5146101a35780633ad6f8ac146101d25780633ca6d5a9146101e55780633f4ba83a146101f8578063407f80011461020d5780635495794b14610220578063555f323a146102335780635c975abb1461024657806366829b161461026d5780636790f3fe1461028c5780637b3529621461029f5780638456cb59146102b25780638da5cb5b146102c5578063911ef508146102d8578063a156ce7b146102eb578063b30475b6146102fe578063b4f5a21a14610311578063b60d428814610324578063c0670d2c1461032c578063ddd7c8791461033f578063df8f4eb714610355578063e6fd48bc14610368578063ea4a11041461037b578063f2fde38b14610391578063f3a504f2146103b0578063f5c6ca08146103c3578063fea708f6146103d9578063feafb79b14610402575b600080fd5b341561017657600080fd5b61017e610415565b60405190815260200160405180910390f35b341561019b57600080fd5b61017e61045e565b34156101ae57600080fd5b6101b6610464565b604051600160a060020a03909116815260200160405180910390f35b34156101dd57600080fd5b61017e610473565b34156101f057600080fd5b61017e6105b1565b341561020357600080fd5b61020b6105b7565b005b341561021857600080fd5b61017e610654565b341561022b57600080fd5b61017e61065a565b341561023e57600080fd5b61017e610660565b341561025157600080fd5b610259610666565b604051901515815260200160405180910390f35b341561027857600080fd5b61020b600160a060020a0360043516610674565b341561029757600080fd5b61017e6106be565b34156102aa57600080fd5b6102596106fa565b34156102bd57600080fd5b61020b610713565b34156102d057600080fd5b6101b6610781565b34156102e357600080fd5b61017e610790565b34156102f657600080fd5b61017e610796565b341561030957600080fd5b61017e61079c565b341561031c57600080fd5b61017e6107a2565b61020b6107d7565b341561033757600080fd5b61020b610895565b341561034a57600080fd5b61020b600435610bd9565b341561036057600080fd5b61017e610c9d565b341561037357600080fd5b61017e610ca3565b341561038657600080fd5b61017e600435610ca9565b341561039c57600080fd5b61020b600160a060020a0360043516610cc8565b34156103bb57600080fd5b610259610d63565b34156103ce57600080fd5b61020b600435610d6c565b34156103e457600080fd5b6103ec610f45565b60405160ff909116815260200160405180910390f35b341561040d57600080fd5b6101b6610f4e565b6000806104206106be565b9050610457620186a061044b61043c828563ffffffff610f5d16565b6008549063ffffffff610f6f16565b9063ffffffff610fa516565b91505b5090565b600d5481565b600154600160a060020a031681565b60008060008060006104836106fa565b1561049a5730600160a060020a03163194506105aa565b6104ca600a546104be620186a061044b600954600854610f6f90919063ffffffff16565b9063ffffffff610f5d16565b600154909450600160a060020a03166318160ddd6000604051602001526040518163ffffffff1660e060020a028152600401602060405180830381600087803b151561051557600080fd5b6102c65a03f1151561052657600080fd5b50505060405180519050925061053a6106be565b915061057e84610572600b5461044b87610566620186a061044b8a600354610f6f90919063ffffffff16565b9063ffffffff610f6f16565b9063ffffffff610fbc16565b90506007548111156105a55760075461059e90829063ffffffff610f5d16565b94506105aa565b600094505b5050505090565b60085481565b6000805433600160a060020a039081169116146105d357600080fd5b600c54610100900460ff1615156105e657fe5b600e546105fa90429063ffffffff610f5d16565b600d54909150610610908263ffffffff610fbc16565b600d55600c805461ff00191690557faaa520fdd7d2c83061d632fa017b0432407e798818af63ea908589fceda39ab78160405190815260200160405180910390a150565b60055481565b60035481565b60095481565b600c54610100900460ff1681565b60005433600160a060020a0390811691161461068f57600080fd5b6001805473ffffffffffffffffffffffffffffffffffffffff1916600160a060020a0392909216919091179055565b6000806106c96107a2565b60065490915060ff1681106106da57fe5b600f8054829081106106e857fe5b90600052602060002090015491505090565b60065460009060ff1661070b6107a2565b101590505b90565b60005433600160a060020a0390811691161461072e57600080fd5b600c54610100900460ff161561074057fe5b600c805461ff00191661010017905542600e557f6985a02210a168e66602d3235cb6db0e70f92b3ba4d376a33c0f3d9434bff62560405160405180910390a1565b600054600160a060020a031681565b600e5481565b600a5481565b60075481565b6004546000904210156107b157fe5b6107d260055461044b600d546104be60045442610f5d90919063ffffffff16565b905090565b60005433600160a060020a039081169116146107f257600080fd5b600c5460ff16156107ff57fe5b600154600160a060020a03166318160ddd6000604051602001526040518163ffffffff1660e060020a028152600401602060405180830381600087803b151561084757600080fd5b6102c65a03f1151561085857600080fd5b5050506040518051600b819055346003819055610883925061044b90620186a063ffffffff610f6f16565b600855600c805460ff19166001179055565b61089d610fcb565b6108a5610ff3565b60065460009060ff16601814806108c1575060065460ff166030145b15156108c957fe5b600f54156108d357fe5b6103006040519081016040528060008152602001601281526020016075815260200161015f81526020016102ff815260200161057f81526020016109058152602001610db781526020016113b78152602001611b2881526020016124298152602001612edb8152602001613b5c81526020016149c98152602001615a408152602001616cde81526020016181bf81526020016198fe815260200161b2b5815260200161cf00815260200161edf9815260200162010fb981526020016201345a815260200162015bf4815250925061060060405190810160405280600081526020016003815260200160128152602001603681526020016075815260200160d6815260200161015f815260200161021681526020016102ff8152602001610420815260200161057e815260200161071e81526020016109048152602001610b358152602001610db6815260200161108a81526020016113b6815260200161173e8152602001611b268152602001611f73815260200161242881526020016129498152602001612eda81526020016134df8152602001613b5b815260200161425281526020016149c881526020016151c18152602001615a4081526020016163488152602001616cde815260200161770481526020016181be8152602001618d1081526020016198fd815260200161a588815260200161b2b5815260200161c086815260200161cf00815260200161de25815260200161edf9815260200161fe7e815260200162010fb88152602001620121ab8152602001620134598152602001620147c5815260200162015bf38152602001620170e68152509150600090505b60065460ff9081169082161015610bd45760065460ff1660181415610b9157600f805460018101610b63838261100e565b91600052602060002090016000858460ff16601881101515610b8157fe5b602002015190915550610bcc9050565b600f805460018101610ba3838261100e565b91600052602060002090016000848460ff16603081101515610bc157fe5b602002015190915550505b600101610b32565b505050565b600c54600090610100900460ff1615610bee57fe5b60025433600160a060020a03908116911614610c0957600080fd5b610c11610473565b905081811015610c1d57fe5b600254600160a060020a031682156108fc0283604051600060405180830381858888f193505050501515610c5057600080fd5b600754610c63908363ffffffff610fbc16565b6007557f7995ed8c8bb70e086ac77eabe37bd8742685022b74d12ac20d7629469b5374e58260405190815260200160405180910390a15050565b600b5481565b60045481565b600f805482908110610cb757fe5b600091825260209091200154905081565b60005433600160a060020a03908116911614610ce357600080fd5b600160a060020a0381161515610cf857600080fd5b600054600160a060020a0380831691167f8be0079c531659141344cd1fd0a4f28419497f9722a3daafe3b4186f6b6457e060405160405180910390a36000805473ffffffffffffffffffffffffffffffffffffffff1916600160a060020a0392909216919091179055565b600c5460ff1681565b600c546000908190610100900460ff1615610d8357fe5b60008311610d9057600080fd5b610d98610415565b9150610db1620186a061044b858563ffffffff610f6f16565b600154909150600160a060020a03166323b872dd33308660006040516020015260405160e060020a63ffffffff8616028152600160a060020a0393841660048201529190921660248201526044810191909152606401602060405180830381600087803b1515610e2057600080fd5b6102c65a03f11515610e3157600080fd5b50505060405180515050600154600160a060020a03166342966c688460405160e060020a63ffffffff84160281526004810191909152602401600060405180830381600087803b1515610e8357600080fd5b6102c65a03f11515610e9457600080fd5b5050600954610eaa91508463ffffffff610fbc16565b600955600160a060020a0333167f1e3ea5698ac6d5bb5cde5c6a3764daa2ef39b16b2062c0ded43333188a5851c083858460405180848152602001838152602001828152602001935050505060405180910390a2600a54610f11908263ffffffff610fbc16565b600a55600160a060020a03331681156108fc0282604051600060405180830381858888f193505050501515610bd457600080fd5b60065460ff1681565b600254600160a060020a031681565b600082821115610f6957fe5b50900390565b600080831515610f825760009150610f9e565b50828202828482811515610f9257fe5b0414610f9a57fe5b8091505b5092915050565b6000808284811515610fb357fe5b04949350505050565b600082820183811015610f9a57fe5b6103006040519081016040526018815b6000815260200190600190039081610fdb5790505090565b61060060405190810160405260008152602f60208201610fdb565b815481835581811511610bd457600083815260209020610bd491810190830161071091905b8082111561045a57600081556001016110335600a165627a7a72305820f1c6904d657bf7a6ab90cc8aeec1faaa348922e21b3416b05374a8af1dff2ca700296060604052341561000f57600080fd5b60405160c08061063383398101604052808051919060200180519190602001805191906020018051919060200180519190602001805160008054600160a060020a03191633600160a060020a03161790559150504286101561007057600080fd5b6000851161007d57600080fd5b6000841161008a57600080fd5b600160a060020a038116151561009f57600080fd5b8383106100ab57600080fd5b600082116100b857600080fd5b60019590955560029390935560039190915560075560045560068054600160a060020a031916600160a060020a03909216919091179055610535806100fe6000396000f3006060604052600436106100b95763ffffffff7c0100000000000000000000000000000000000000000000000000000000600035041663407f800181146100be57806346e04a2f146100e357806366829b16146100fb5780638da5cb5b1461011a5780639d63848a14610149578063d85349f71461015c578063e35568cb1461016f578063e6fd48bc14610182578063e834a83414610195578063f2fde38b146101a8578063fc0c546a146101c7578063fea708f6146101da575b600080fd5b34156100c957600080fd5b6100d16101ed565b60405190815260200160405180910390f35b34156100ee57600080fd5b6100f96004356101f3565b005b341561010657600080fd5b6100f9600160a060020a03600435166102d4565b341561012557600080fd5b61012d61031e565b604051600160a060020a03909116815260200160405180910390f35b341561015457600080fd5b6100d161032d565b341561016757600080fd5b6100d1610333565b341561017a57600080fd5b6100d1610339565b341561018d57600080fd5b6100d16103df565b34156101a057600080fd5b6100d16103e5565b34156101b357600080fd5b6100f9600160a060020a03600435166103eb565b34156101d257600080fd5b61012d610486565b34156101e557600080fd5b6100d1610495565b60025481565b60005433600160a060020a0390811691161461020e57600080fd5b80610217610339565b101561021f57fe5b600554610232908263ffffffff61049b16565b60055560065460008054600160a060020a039283169263a9059cbb929116908490604051602001526040517c010000000000000000000000000000000000000000000000000000000063ffffffff8516028152600160a060020a0390921660048301526024820152604401602060405180830381600087803b15156102b657600080fd5b6102c65a03f115156102c757600080fd5b5050506040518051505050565b60005433600160a060020a039081169116146102ef57600080fd5b6006805473ffffffffffffffffffffffffffffffffffffffff1916600160a060020a0392909216919091179055565b600054600160a060020a031681565b60045481565b60075481565b600080610363600254610357600154426104b590919063ffffffff16565b9063ffffffff6104c716565b905060075481101561037857600091506103db565b600354811061039d576005546004546103969163ffffffff6104b516565b91506103db565b6103966005546103cf6003546103576103c060018761049b90919063ffffffff16565b6004549063ffffffff6104de16565b9063ffffffff6104b516565b5090565b60015481565b60055481565b60005433600160a060020a0390811691161461040657600080fd5b600160a060020a038116151561041b57600080fd5b600054600160a060020a0380831691167f8be0079c531659141344cd1fd0a4f28419497f9722a3daafe3b4186f6b6457e060405160405180910390a36000805473ffffffffffffffffffffffffffffffffffffffff1916600160a060020a0392909216919091179055565b600654600160a060020a031681565b60035481565b6000828201838110156104aa57fe5b8091505b5092915050565b6000828211156104c157fe5b50900390565b60008082848115156104d557fe5b04949350505050565b6000808315156104f157600091506104ae565b5082820282848281151561050157fe5b04146104aa57fe00a165627a7a72305820e1fe55cd90fb093f603d1fd73a8b804bb1dba75b661b22efcbc844065b947d040029a165627a7a72305820c2ac56aed750f01f9c524a6344e27c9bbc86913becd1195356847bf1ae0a35d50029606060405260038054600160b060020a03191633600160a060020a0316179055610f698061002e6000396000f30060606040526004361061011c5763ffffffff7c010000000000000000000000000000000000000000000000000000000060003504166305d2035b8114610121578063095ea7b31461014857806318160ddd1461016a57806323b872dd1461018f5780632e0f2625146101b75780633f4ba83a146101ca57806340c10f19146101df57806342966c68146102015780635c975abb14610217578063661884631461022a57806370a082311461024c5780637d64bcb41461026b5780638456cb591461027e5780638da5cb5b146102915780639dc29fac146102c0578063a3f4df7e146102e2578063a9059cbb1461036c578063d73dd6231461038e578063dd62ed3e146103b0578063f2fde38b146103d5578063f76f8d78146103f4575b600080fd5b341561012c57600080fd5b610134610407565b604051901515815260200160405180910390f35b341561015357600080fd5b610134600160a060020a0360043516602435610417565b341561017557600080fd5b61017d610442565b60405190815260200160405180910390f35b341561019a57600080fd5b610134600160a060020a0360043581169060243516604435610448565b34156101c257600080fd5b61017d610475565b34156101d557600080fd5b6101dd61047a565b005b34156101ea57600080fd5b610134600160a060020a03600435166024356104fa565b341561020c57600080fd5b6101dd6004356105f6565b341561022257600080fd5b6101346106ba565b341561023557600080fd5b610134600160a060020a03600435166024356106ca565b341561025757600080fd5b61017d600160a060020a03600435166106ee565b341561027657600080fd5b610134610709565b341561028957600080fd5b6101dd610794565b341561029c57600080fd5b6102a4610819565b604051600160a060020a03909116815260200160405180910390f35b34156102cb57600080fd5b6101dd600160a060020a0360043516602435610828565b34156102ed57600080fd5b6102f5610908565b60405160208082528190810183818151815260200191508051906020019080838360005b83811015610331578082015183820152602001610319565b50505050905090810190601f16801561035e5780820380516001836020036101000a031916815260200191505b509250505060405180910390f35b341561037757600080fd5b610134600160a060020a036004351660243561093f565b341561039957600080fd5b610134600160a060020a0360043516602435610963565b34156103bb57600080fd5b61017d600160a060020a0360043581169060243516610987565b34156103e057600080fd5b6101dd600160a060020a03600435166109b2565b34156103ff57600080fd5b6102f5610a4d565b60035460a060020a900460ff1681565b60035460009060a860020a900460ff161561043157600080fd5b61043b8383610a84565b9392505050565b60015490565b60035460009060a860020a900460ff161561046257600080fd5b61046d848484610af0565b949350505050565b601281565b60035433600160a060020a0390811691161461049557600080fd5b60035460a860020a900460ff1615156104ad57600080fd5b6003805475ff000000000000000000000000000000000000000000191690557f7805862f689e2f13df9f062ff482ad3ad112aca9e0847911ed832e158c525b3360405160405180910390a1565b60035460009033600160a060020a0390811691161461051857600080fd5b60035460a060020a900460ff161561052f57600080fd5b600154610542908363ffffffff610c5e16565b600155600160a060020a03831660009081526020819052604090205461056e908363ffffffff610c5e16565b600160a060020a0384166000818152602081905260409081902092909255907f0f6798a560793a54c3bcfe86a93cde1e73087d944c0ea20544137d41213968859084905190815260200160405180910390a2600160a060020a0383166000600080516020610f1e8339815191528460405190815260200160405180910390a350600192915050565b60035460a860020a900460ff161561060d57600080fd5b600160a060020a03331660009081526020819052604090205481111561063257600080fd5b600160a060020a03331660009081526020819052604090205461065b908263ffffffff610c6d16565b600160a060020a033316600090815260208190526040902055600154610687908263ffffffff610c6d16565b600155600033600160a060020a0316600080516020610f1e8339815191528360405190815260200160405180910390a350565b60035460a860020a900460ff1681565b60035460009060a860020a900460ff16156106e457600080fd5b61043b8383610c7f565b600160a060020a031660009081526020819052604090205490565b60035460009033600160a060020a0390811691161461072757600080fd5b60035460a060020a900460ff161561073e57600080fd5b6003805474ff0000000000000000000000000000000000000000191660a060020a1790557fae5184fba832cb2b1f702aca6117b8d265eaf03ad33eb133f19dde0f5920fa0860405160405180910390a150600190565b60035433600160a060020a039081169116146107af57600080fd5b60035460a860020a900460ff16156107c657600080fd5b6003805475ff000000000000000000000000000000000000000000191660a860020a1790557f6985a02210a168e66602d3235cb6db0e70f92b3ba4d376a33c0f3d9434bff62560405160405180910390a1565b600354600160a060020a031681565b60035433600160a060020a0390811691161461084357600080fd5b60035460a060020a900460ff161561085a57600080fd5b600160a060020a03821660009081526020819052604090205481111561087f57600080fd5b600160a060020a0382166000908152602081905260409020546108a8908263ffffffff610c6d16565b600160a060020a0383166000908152602081905260409020556001546108d4908263ffffffff610c6d16565b6001556000600160a060020a038316600080516020610f1e8339815191528360405190815260200160405180910390a35050565b60408051908101604052600481527f4cc3ad6600000000000000000000000000000000000000000000000000000000602082015281565b60035460009060a860020a900460ff161561095957600080fd5b61043b8383610d79565b60035460009060a860020a900460ff161561097d57600080fd5b61043b8383610e79565b600160a060020a03918216600090815260026020908152604080832093909416825291909152205490565b60035433600160a060020a039081169116146109cd57600080fd5b600160a060020a03811615156109e257600080fd5b600354600160a060020a0380831691167f8be0079c531659141344cd1fd0a4f28419497f9722a3daafe3b4186f6b6457e060405160405180910390a36003805473ffffffffffffffffffffffffffffffffffffffff1916600160a060020a0392909216919091179055565b60408051908101604052600381527f4c49460000000000000000000000000000000000000000000000000000000000602082015281565b600160a060020a03338116600081815260026020908152604080832094871680845294909152808220859055909291907f8c5be1e5ebec7d5bd14f71427d1e84f3dd0314c0f7b2291e5b200ac8c7c3b9259085905190815260200160405180910390a350600192915050565b6000600160a060020a0383161515610b0757600080fd5b600160a060020a038416600090815260208190526040902054821115610b2c57600080fd5b600160a060020a0380851660009081526002602090815260408083203390941683529290522054821115610b5f57600080fd5b600160a060020a038416600090815260208190526040902054610b88908363ffffffff610c6d16565b600160a060020a038086166000908152602081905260408082209390935590851681522054610bbd908363ffffffff610c5e16565b600160a060020a0380851660009081526020818152604080832094909455878316825260028152838220339093168252919091522054610c03908363ffffffff610c6d16565b600160a060020a0380861660008181526002602090815260408083203386168452909152908190209390935590851691600080516020610f1e8339815191529085905190815260200160405180910390a35060019392505050565b60008282018381101561043b57fe5b600082821115610c7957fe5b50900390565b600160a060020a03338116600090815260026020908152604080832093861683529290529081205480831115610cdc57600160a060020a033381166000908152600260209081526040808320938816835292905290812055610d13565b610cec818463ffffffff610c6d16565b600160a060020a033381166000908152600260209081526040808320938916835292905220555b600160a060020a0333811660008181526002602090815260408083209489168084529490915290819020547f8c5be1e5ebec7d5bd14f71427d1e84f3dd0314c0f7b2291e5b200ac8c7c3b925915190815260200160405180910390a35060019392505050565b6000600160a060020a0383161515610d9057600080fd5b600160a060020a033316600090815260208190526040902054821115610db557600080fd5b600160a060020a033316600090815260208190526040902054610dde908363ffffffff610c6d16565b600160a060020a033381166000908152602081905260408082209390935590851681522054610e13908363ffffffff610c5e16565b60008085600160a060020a0316600160a060020a031681526020019081526020016000208190555082600160a060020a031633600160a060020a0316600080516020610f1e8339815191528460405190815260200160405180910390a350600192915050565b600160a060020a033381166000908152600260209081526040808320938616835292905290812054610eb1908363ffffffff610c5e16565b600160a060020a0333811660008181526002602090815260408083209489168084529490915290819020849055919290917f8c5be1e5ebec7d5bd14f71427d1e84f3dd0314c0f7b2291e5b200ac8c7c3b92591905190815260200160405180910390a3506001929150505600ddf252ad1be2c89b69c2b068fc378daa952ba7f163c4a11628f55a4df523b3efa165627a7a7230582063271a187971665c21fa974e606572dafefcd48f897d356a24234c91268a4ee20029",
  "source": "pragma solidity ^0.4.18;\n\nimport \"../LifCrowdsale.sol\";\n\n/**\n   @title TGEDeployer, A deployer contract for the Winding Tree TGE\n\n   This contract is used to create a crowdsale and issue presale tokens in batches\n   it will also set the weiPerUSD and transfer ownership, after that everything is\n   ready for the TGE to succed.\n */\ncontract TGEDeployer {\n\n  LifCrowdsale public crowdsale;\n  address public wallet;\n  address public owner;\n\n  function TGEDeployer(\n    uint256 startTimestamp,\n    uint256 end1Timestamp,\n    uint256 end2Timestamp,\n    uint256 rate1,\n    uint256 rate2,\n    uint256 setWeiLockSeconds,\n    address foundationWallet,\n    address foundersWallet\n  ) public {\n    crowdsale = new LifCrowdsale(\n      startTimestamp, end1Timestamp, end2Timestamp, rate1, rate2,\n      setWeiLockSeconds, foundationWallet, foundersWallet\n    );\n    wallet = foundationWallet;\n    owner = msg.sender;\n  }\n\n  // Mint a batch of presale tokens\n  function addPresaleTokens(address[] contributors, uint256[] values, uint256 rate) public {\n    require(msg.sender == owner);\n    require(contributors.length == values.length);\n    for (uint32 i = 0; i < contributors.length; i ++) {\n      crowdsale.addPrivatePresaleTokens(contributors[i], values[i], rate);\n    }\n  }\n\n  // Set the wei per USD in the crowdsale and then transfer ownership to foundation\n  function finish(uint256 weiPerUSDinTGE) public {\n    require(msg.sender == owner);\n    crowdsale.setWeiPerUSDinTGE(weiPerUSDinTGE);\n    crowdsale.transferOwnership(wallet);\n  }\n\n}\n",
  "sourcePath": "/home/blackjak/winding-tree/LifToken/contracts/deploy/TGEDeployer.sol",
  "compiler": {
    "name": "solc",
    "version": "0.4.18+commit.9cf6e910.Emscripten.clang"
  },
  "schemaVersion": "1.0.1",
  "updatedAt": "2018-01-30T01:37:56.669Z"
}