{
  "contractName": "VestedPayment",
  "abi": [
    {
      "constant": true,
      "inputs": [],
      "name": "secondsPerPeriod",
      "outputs": [
        {
          "name": "",
          "type": "uint256"
        }
      ],
      "payable": false,
      "stateMutability": "view",
      "type": "function"
    },
    {
      "constant": false,
      "inputs": [
        {
          "name": "amount",
          "type": "uint256"
        }
      ],
      "name": "claimTokens",
      "outputs": [],
      "payable": false,
      "stateMutability": "nonpayable",
      "type": "function"
    },
    {
      "constant": false,
      "inputs": [
        {
          "name": "newToken",
          "type": "address"
        }
      ],
      "name": "changeToken",
      "outputs": [],
      "payable": false,
      "stateMutability": "nonpayable",
      "type": "function"
    },
    {
      "constant": true,
      "inputs": [],
      "name": "owner",
      "outputs": [
        {
          "name": "",
          "type": "address"
        }
      ],
      "payable": false,
      "stateMutability": "view",
      "type": "function"
    },
    {
      "constant": true,
      "inputs": [],
      "name": "tokens",
      "outputs": [
        {
          "name": "",
          "type": "uint256"
        }
      ],
      "payable": false,
      "stateMutability": "view",
      "type": "function"
    },
    {
      "constant": true,
      "inputs": [],
      "name": "cliffDuration",
      "outputs": [
        {
          "name": "",
          "type": "uint256"
        }
      ],
      "payable": false,
      "stateMutability": "view",
      "type": "function"
    },
    {
      "constant": true,
      "inputs": [],
      "name": "getAvailableTokens",
      "outputs": [
        {
          "name": "",
          "type": "uint256"
        }
      ],
      "payable": false,
      "stateMutability": "view",
      "type": "function"
    },
    {
      "constant": true,
      "inputs": [],
      "name": "startTimestamp",
      "outputs": [
        {
          "name": "",
          "type": "uint256"
        }
      ],
      "payable": false,
      "stateMutability": "view",
      "type": "function"
    },
    {
      "constant": true,
      "inputs": [],
      "name": "claimed",
      "outputs": [
        {
          "name": "",
          "type": "uint256"
        }
      ],
      "payable": false,
      "stateMutability": "view",
      "type": "function"
    },
    {
      "constant": false,
      "inputs": [
        {
          "name": "newOwner",
          "type": "address"
        }
      ],
      "name": "transferOwnership",
      "outputs": [],
      "payable": false,
      "stateMutability": "nonpayable",
      "type": "function"
    },
    {
      "constant": true,
      "inputs": [],
      "name": "token",
      "outputs": [
        {
          "name": "",
          "type": "address"
        }
      ],
      "payable": false,
      "stateMutability": "view",
      "type": "function"
    },
    {
      "constant": true,
      "inputs": [],
      "name": "totalPeriods",
      "outputs": [
        {
          "name": "",
          "type": "uint256"
        }
      ],
      "payable": false,
      "stateMutability": "view",
      "type": "function"
    },
    {
      "inputs": [
        {
          "name": "_startTimestamp",
          "type": "uint256"
        },
        {
          "name": "_secondsPerPeriod",
          "type": "uint256"
        },
        {
          "name": "_totalPeriods",
          "type": "uint256"
        },
        {
          "name": "_cliffDuration",
          "type": "uint256"
        },
        {
          "name": "_tokens",
          "type": "uint256"
        },
        {
          "name": "tokenAddress",
          "type": "address"
        }
      ],
      "payable": false,
      "stateMutability": "nonpayable",
      "type": "constructor"
    },
    {
      "anonymous": false,
      "inputs": [
        {
          "indexed": true,
          "name": "previousOwner",
          "type": "address"
        },
        {
          "indexed": true,
          "name": "newOwner",
          "type": "address"
        }
      ],
      "name": "OwnershipTransferred",
      "type": "event"
    }
  ],
  "bytecode": "0x6060604052341561000f57600080fd5b60405160c08061063383398101604052808051919060200180519190602001805191906020018051919060200180519190602001805160008054600160a060020a03191633600160a060020a03161790559150504286101561007057600080fd5b6000851161007d57600080fd5b6000841161008a57600080fd5b600160a060020a038116151561009f57600080fd5b8383106100ab57600080fd5b600082116100b857600080fd5b60019590955560029390935560039190915560075560045560068054600160a060020a031916600160a060020a03909216919091179055610535806100fe6000396000f3006060604052600436106100b95763ffffffff7c0100000000000000000000000000000000000000000000000000000000600035041663407f800181146100be57806346e04a2f146100e357806366829b16146100fb5780638da5cb5b1461011a5780639d63848a14610149578063d85349f71461015c578063e35568cb1461016f578063e6fd48bc14610182578063e834a83414610195578063f2fde38b146101a8578063fc0c546a146101c7578063fea708f6146101da575b600080fd5b34156100c957600080fd5b6100d16101ed565b60405190815260200160405180910390f35b34156100ee57600080fd5b6100f96004356101f3565b005b341561010657600080fd5b6100f9600160a060020a03600435166102d4565b341561012557600080fd5b61012d61031e565b604051600160a060020a03909116815260200160405180910390f35b341561015457600080fd5b6100d161032d565b341561016757600080fd5b6100d1610333565b341561017a57600080fd5b6100d1610339565b341561018d57600080fd5b6100d16103df565b34156101a057600080fd5b6100d16103e5565b34156101b357600080fd5b6100f9600160a060020a03600435166103eb565b34156101d257600080fd5b61012d610486565b34156101e557600080fd5b6100d1610495565b60025481565b60005433600160a060020a0390811691161461020e57600080fd5b80610217610339565b101561021f57fe5b600554610232908263ffffffff61049b16565b60055560065460008054600160a060020a039283169263a9059cbb929116908490604051602001526040517c010000000000000000000000000000000000000000000000000000000063ffffffff8516028152600160a060020a0390921660048301526024820152604401602060405180830381600087803b15156102b657600080fd5b6102c65a03f115156102c757600080fd5b5050506040518051505050565b60005433600160a060020a039081169116146102ef57600080fd5b6006805473ffffffffffffffffffffffffffffffffffffffff1916600160a060020a0392909216919091179055565b600054600160a060020a031681565b60045481565b60075481565b600080610363600254610357600154426104b590919063ffffffff16565b9063ffffffff6104c716565b905060075481101561037857600091506103db565b600354811061039d576005546004546103969163ffffffff6104b516565b91506103db565b6103966005546103cf6003546103576103c060018761049b90919063ffffffff16565b6004549063ffffffff6104de16565b9063ffffffff6104b516565b5090565b60015481565b60055481565b60005433600160a060020a0390811691161461040657600080fd5b600160a060020a038116151561041b57600080fd5b600054600160a060020a0380831691167f8be0079c531659141344cd1fd0a4f28419497f9722a3daafe3b4186f6b6457e060405160405180910390a36000805473ffffffffffffffffffffffffffffffffffffffff1916600160a060020a0392909216919091179055565b600654600160a060020a031681565b60035481565b6000828201838110156104aa57fe5b8091505b5092915050565b6000828211156104c157fe5b50900390565b60008082848115156104d557fe5b04949350505050565b6000808315156104f157600091506104ae565b5082820282848281151561050157fe5b04146104aa57fe00a165627a7a72305820e1fe55cd90fb093f603d1fd73a8b804bb1dba75b661b22efcbc844065b947d040029",
  "source": "pragma solidity ^0.4.18;\n\nimport \"zeppelin-solidity/contracts/math/SafeMath.sol\";\nimport \"zeppelin-solidity/contracts/ownership/Ownable.sol\";\nimport \"./LifToken.sol\";\n\n/**\n   @title Vested Payment Schedule for LifToken\n\n   An ownable vesting schedule for the LifToken, the tokens can only be\n   claimed by the owner. The contract has a start timestamp, a duration\n   of each period in seconds (it can be days, months, years), a total\n   amount of periods and a cliff. The available amount of tokens will\n   be calculated based on the balance of LifTokens of the contract at\n   that time.\n */\n\ncontract VestedPayment is Ownable {\n  using SafeMath for uint256;\n\n  // When the vested schedule starts\n  uint256 public startTimestamp;\n\n  // How many seconds each period will last\n  uint256 public secondsPerPeriod;\n\n  // How many periods will have in total\n  uint256 public totalPeriods;\n\n  // The amount of tokens to be vested in total\n  uint256 public tokens;\n\n  // How many tokens were claimed\n  uint256 public claimed;\n\n  // The token contract\n  LifToken public token;\n\n  // Duration (in periods) of the initial cliff in the vesting schedule\n  uint256 public cliffDuration;\n\n  /**\n     @dev Constructor.\n\n     @param _startTimestamp see `startTimestamp`\n     @param _secondsPerPeriod see `secondsPerPeriod`\n     @param _totalPeriods see `totalPeriods\n     @param _cliffDuration see `cliffDuration`\n     @param _tokens see `tokens`\n     @param tokenAddress the address of the token contract\n   */\n  function VestedPayment(\n    uint256 _startTimestamp, uint256 _secondsPerPeriod,\n    uint256 _totalPeriods, uint256 _cliffDuration,\n    uint256 _tokens, address tokenAddress\n  ) {\n    require(_startTimestamp >= block.timestamp);\n    require(_secondsPerPeriod > 0);\n    require(_totalPeriods > 0);\n    require(tokenAddress != address(0));\n    require(_cliffDuration < _totalPeriods);\n    require(_tokens > 0);\n\n    startTimestamp = _startTimestamp;\n    secondsPerPeriod = _secondsPerPeriod;\n    totalPeriods = _totalPeriods;\n    cliffDuration = _cliffDuration;\n    tokens = _tokens;\n    token = LifToken(tokenAddress);\n  }\n\n  /**\n     @dev Change the LifToken address\n    */\n  function changeToken(address newToken) public onlyOwner {\n    token = LifToken(newToken);\n  }\n\n  /**\n     @dev Get how many tokens are available to be claimed\n   */\n  function getAvailableTokens() public view returns (uint256) {\n    uint256 period = block.timestamp.sub(startTimestamp)\n      .div(secondsPerPeriod);\n\n    if (period < cliffDuration) {\n      return 0;\n    } else if (period >= totalPeriods) {\n      return tokens.sub(claimed);\n    } else {\n      return tokens.mul(period.add(1)).div(totalPeriods).sub(claimed);\n    }\n  }\n\n  /**\n     @dev Claim the tokens, they can be claimed only by the owner\n     of the contract\n\n     @param amount how many tokens to be claimed\n   */\n  function claimTokens(uint256 amount) public onlyOwner {\n    assert(getAvailableTokens() >= amount);\n\n    claimed = claimed.add(amount);\n    token.transfer(owner, amount);\n  }\n\n}\n",
  "sourcePath": "/home/blackjak/winding-tree/LifToken/contracts/VestedPayment.sol",
  "compiler": {
    "name": "solc",
    "version": "0.4.18+commit.9cf6e910.Emscripten.clang"
  },
  "schemaVersion": "1.0.1",
  "updatedAt": "2018-01-30T01:37:56.668Z"
}